:020000040800F2
:1000000000000220556F000805460008074600085A
:10001000094600080B4600080D46000800000000D5
:10002000000000000000000000000000816C0008DB
:100030000F46000800000000216D0008856D0008D3
:10004000A56F0008A56F0008A56F0008A56F000840
:10005000A56F0008A56F0008A56F0008A56F000830
:10006000A56F0008A56F0008A56F0008A56F000820
:10007000A56F0008A56F0008A56F0008A56F000810
:10008000A56F0008A56F0008A56F0008A56F000800
:10009000A56F0008A56F0008A56F0008A56F0008F0
:1000A000A56F0008A56F0008A56F0008A56F0008E0
:1000B000A56F0008A56F0008A56F0008A56F0008D0
:1000C000A56F0008A56F0008A56F0008A56F0008C0
:1000D000A56F0008A56F0008A56F0008A56F0008B0
:1000E000A56F0008A56F0008A56F0008A56F0008A0
:1000F000A56F0008A56F0008A56F0008A56F000890
:10010000A56F000811460008A56F0008A56F00083C
:10011000A56F0008A56F000821460008A56F00081C
:10012000A56F0008A56F0008A56F000831460008FC
:10013000A56F0008A56F0008A56F0008A56F00084F
:10014000A56F0008A56F0008A56F0008A56F00083F
:10015000A56F000841460008A56F0008A56F0008BC
:10016000A56F0008A56F0008A56F0008A56F00081F
:10017000A56F0008A56F0008A56F0008000000002B
:08018000A56F0008A56F00083F
:100190000348044B834202D0034B03B11847704716
:1001A0002000002020000020000000000548064933
:1001B0000B1AD90F01EBA301491002D0034B03B175
:1001C0001847704720000020200000200000000099
:1001D00010B5064C237843B9FFF7DAFF044B13B18F
:1001E0000448AFF300800123237010BD20000020DD
:1001F00000000000A86F000808B5044B1BB10449BB
:100200000448AFF30080BDE80840CFE700000000DD
:1002100024000020A86F000870B50D4E0D4D761B10
:10022000B61006D00024013455F8043B9847A64286
:10023000F9D1094E094D761B06F0B6FEB61006D070
:100240000024013455F8043B9847A642F9D170BD0B
:10025000E0700008E0700008E4700008E07000083A
:10026000844641EA000313F003036DD1403A41D3C1
:1002700051F8043B40F8043B51F8043B40F8043B80
:1002800051F8043B40F8043B51F8043B40F8043B70
:1002900051F8043B40F8043B51F8043B40F8043B60
:1002A00051F8043B40F8043B51F8043B40F8043B50
:1002B00051F8043B40F8043B51F8043B40F8043B40
:1002C00051F8043B40F8043B51F8043B40F8043B30
:1002D00051F8043B40F8043B51F8043B40F8043B20
:1002E00051F8043B40F8043B51F8043B40F8043B10
:1002F000403ABDD2303211D351F8043B40F8043BB0
:1003000051F8043B40F8043B51F8043B40F8043BEF
:1003100051F8043B40F8043B103AEDD20C3205D3BF
:1003200051F8043B40F8043B043AF9D2043208D0B7
:10033000D2071CBF11F8013B00F8013B01D30B8829
:1003400003806046704700BF082A13D38B078DD007
:1003500010F003038AD0C3F10403D21ADB071CBFD9
:1003600011F8013B00F8013B80D331F8023B20F843
:10037000023B7BE7043AD9D3013A11F8013B00F87C
:10038000013BF9D20B7803704B7843708B78837004
:1003900060467047F0B4860746D0541E002A3CD011
:1003A000CAB2034602E014F1FF3436D303F8012B3E
:1003B0009D07F8D1032C29D9CDB245EA05250F2C8C
:1003C00045EA054533D9A4F11006360903F12007A3
:1003D00007EB061703F1100242E9045542E9025502
:1003E0001032BA42F8D1721C14F00C0F03EB021257
:1003F00004F00F0613D0331F23F003030433134418
:1004000042F8045B9342FBD106F003042CB1C9B25D
:100410001C4403F8011B9C42FBD1F0BC70473446DE
:100420001346002CF3D1F8E714460346C2E71A46F8
:100430002646E0E753B94AB9002908BF00281CBF87
:100440004FF0FF314FF0FF3000F06EB9ADF1080C06
:100450006DE904CE00F006F8DDF804E0DDE90223E2
:1004600004B070472DE9F047089D04468C46002BE8
:1004700040F083808A42174647D9B2FA82F242B1ED
:10048000C2F1200024FA00F09140974040EA010CAC
:1004900094404FEA1748230CBCFBF8F61FFA87FE7E
:1004A00008FB16C143EA014306FB0EF1994209D944
:1004B000FB1806F1FF3080F01981994240F2168155
:1004C000023E3B445B1AA4B2B3FBF8F008FB1033C6
:1004D00044EA034400FB0EFEA64509D93C1900F18D
:1004E000FF3380F00581A64540F2028102383C448A
:1004F00040EA0640A4EB0E0400261DB1D4400023C0
:10050000C5E900433146BDE8F08702B9FFDEB2FA23
:1005100082F2002A50D1CB1B4FEA174E1FFA87F800
:100520000126B3FBFEFC210C0EFB1C3341EA034108
:1005300008FB0CF38B4207D979180CF1FF3002D27B
:100540008B4200F2E9808446C91AA3B2B1FBFEF0E7
:100550000EFB101143EA014408FB00F8A04507D93F
:100560003C1900F1FF3302D2A04500F2D9801846B1
:10057000A4EB080440EA0C40BFE78B4209D9002DE8
:1005800000F0B1800026C5E9000130463146BDE8E3
:10059000F087B3FA83F6002E4AD18B4202D382420F
:1005A00000F2B880841A61EB030101208C46002D13
:1005B000A8D0C5E9004CA5E7C2F1200320FA03F654
:1005C000974001FA02F04FEA174ED9403043030C2E
:1005D000B1FBFEF61FFA87F80EFB161143EA014342
:1005E00006FB08F1994204FA02F409D9FB1806F156
:1005F000FF3C80F08D80994240F28A80023E3B446D
:100600005B1A81B2B3FBFEF00EFB103341EA0341EB
:1006100000FB08F38B4207D9791800F1FF3C73D235
:100620008B4271D902383944CB1A40EA064678E742
:10063000C6F1200C03FA06F422FA0CF31C4320FA4C
:100640000CF701FA06F34FEA144E21FA0CF11F439E
:100650003B0CB1FBFEF91FFA84F80EFB191143EABB
:10066000014109FB08FA8A4502FA06F200FA06F38C
:1006700008D9611809F1FF3048D28A4546D9A9F155
:1006800002092144A1EB0A01BFB2B1FBFEF00EFB4F
:10069000101147EA014700FB08F8B84507D9E719E8
:1006A00000F1FF312ED2B8452CD90238274440EA58
:1006B0000940A7EB0807A0FB02894F45C6464946FB
:1006C0001AD317D05DB1B3EB0E0267EB010707FA3F
:1006D0000CFCF2404CEA0202F740C5E90027002674
:1006E0003146BDE8F0872E4628460BE70646E9E688
:1006F0001846FDE64345E5D2B8EB020E69EB04016E
:100700000138DFE70846D2E760468DE78146B9E762
:10071000664675E730464AE7ACF1020C394413E708
:1007200002383C4424E700BF704700BF0B4B1B68F6
:100730000B4AA2FB03235A0A41F2883303FB02F35C
:100740001A46013B3AB1426B12F0800FF8D0C52334
:100750008363002070474FF000407047180000206E
:10076000D34D62100146144B1B68144AA2FB0323AD
:100770005A0A41F2883303FB02F31A46013BBAB12D
:100780004A6B12F0450FF8D012F4006FF5D14B6BA5
:1007900013F0040F06D1486B10F0010005D1C523FA
:1007A0008B6370470420886370470120886370471B
:1007B0004FF00040704700BF18000020D34D62107A
:1007C0000146104B1B68104AA2FB03235A0A41F250
:1007D000883303FB02F31A46013B82B14A6B12F0E5
:1007E000450FF8D012F4006FF5D1486B10F00400FB
:1007F00002D1C5238B6370470420886370474FF094
:100800000040704718000020D34D62100146164B7F
:100810001B68164AA2FB03235A0A41F2883303FBE2
:1008200002F31A46013BE2B14A6B12F0450FF8D0D1
:1008300012F4006FF5D14B6B13F0040F0BD14B6B1F
:1008400013F001030AD1486B10F040000BD0402296
:100850008A631846704704208863704701208863C4
:1008600070474FF00040704718000020D34D6210D1
:1008700084B010B402AC84E80E000B46039A134314
:10088000049A1343059A1343069A1343079A134392
:10089000426822F4FD4222F07F02134343600020AD
:1008A0005DF8044B04B07047D0F8800070470B68C7
:1008B000C0F880300020704708B503230360022091
:1008C00002F018F8002008BD006800F0030070472F
:1008D0000B6883604B688A681343CA6813430A69CC
:1008E0001343C26822F47F6222F00F021343C360F5
:1008F000002070470069C0B27047143040587047FC
:1009000038B504460D46504B1B685049A1FB0313F4
:100910005B0A02FB03F21346013A002B5DD0636BC6
:1009200013F0450FF7D013F4006FF4D1636B13F09D
:10093000040F06D1636B13F0010F05D00120A063F3
:100940004DE00420A0634AE0C523A3632046FFF7DF
:10095000D1FFA84201D0012041E000212046FFF74D
:10096000CCFF03463A481840C8B3002B38DB13F0DD
:10097000804F38D113F0005F37D113F0805F36D14C
:1009800013F0006F36D113F0806F36D113F0807FF3
:1009900036D113F4000F36D113F4800F36D113F48F
:1009A000001F36D113F4801F36D113F4802F36D1B7
:1009B00013F4003F36D113F4803F36D113F4004FC7
:1009C00036D113F4804F36D113F4005F36D113F0D3
:1009D000080F36D04FF4000001E04FF0004038BD62
:1009E0004FF00070FBE74020F9E78020F7E74FF475
:1009F0008070F4E74FF40070F1E74FF48060EEE7A9
:100A00004FF40060EBE74FF48050E8E74FF40050FC
:100A1000E5E74FF48040E2E74FF40040DFE74FF4B2
:100A20000030DCE74FF48020D9E74FF40020D6E710
:100A30004FF48010D3E74FF40010D0E74FF480005C
:100A4000CDE74FF48030CAE718000020D34D621084
:100A500008E0FFFDF8B505460E461746234B1B6818
:100A60002348A0FB0323580A41F2883303FB00F319
:100A70001C46013B8CB36C6B14F0450FF8D014F49A
:100A8000006FF5D16B6B13F0040F06D16B6B13F095
:100A9000010F05D00120A86321E00420A8631EE017
:100AA0002846FFF727FFB04201D0012017E0C523F9
:100AB000AB6300212846FFF720FF034610F4604097
:100AC00008D013F4804F0BD113F4004F0BD04FF428
:100AD000805004E01B0C3B8001E04FF00040F8BD6B
:100AE0004FF40050FBE74FF48030F8E71800002087
:100AF000D34D62100B6843624B6883628B68CA688F
:100B000013430A6913434A691343C26A22F0F70286
:100B10001343C3620020704730B587B0044601918B
:100B20001025029540230393002304934FF4806320
:100B3000059301A9FFF7CCFE41F2883229462046F1
:100B4000FFF7DEFE07B030BD30B587B00446019137
:100B50001125029540230393002304934FF48063EF
:100B6000059301A9FFF7B4FE41F2883229462046D9
:100B7000FFF7C6FE07B030BD30B587B0044601911F
:100B80001225029540230393002304934FF48063BE
:100B9000059301A9FFF79CFE41F2883229462046C1
:100BA000FFF7AEFE07B030BD30B587B00446019107
:100BB0001825029540230393002304934FF4806388
:100BC000059301A9FFF784FE41F2883229462046A9
:100BD000FFF796FE07B030BD30B587B004460191EF
:100BE0001925029540230393002304934FF4806357
:100BF000059301A9FFF76CFE41F288322946204691
:100C0000FFF77EFE07B030BD30B587B00446002345
:100C100001930C2502954022039204934FF48063C4
:100C2000059301A9FFF754FE034A29462046FFF722
:100C300067FE07B030BD00BF00E1F50530B587B0F5
:100C40000446019207250295402303930023049351
:100C50004FF48063059301A9FFF73AFE41F2883211
:100C600029462046FFF74CFE07B030BD10B586B0D0
:100C70000446002301930293039304934FF480638B
:100C8000059301A9FFF724FE2046FFF74FFD06B0AC
:100C900010BD10B586B004464FF4D57301930823F8
:100CA000029340230393002304934FF4806305933E
:100CB00001A9FFF70DFE2046FFF7A8FD06B010BD05
:100CC00030B587B004460191372502954023039340
:100CD000002304934FF48063059301A9FFF7F8FD07
:100CE00041F2883229462046FFF70AFE07B030BDA0
:100CF00010B586B0044641F0004141F480110191E5
:100D00002923029340230393002304934FF4806329
:100D1000059301A9FFF7DCFD2046FFF751FD06B062
:100D200010BD10B586B00446002301930222029242
:100D3000C022039204934FF48063059301A9FFF747
:100D4000C7FD2046FFF70EFD06B010BD10B586B0FA
:100D50000446019109230293C023039300230493C3
:100D60004FF48063059301A9FFF7B2FD2046FFF71A
:100D7000F9FC06B010BD70B586B004460D460023E0
:100D80000193032602964022039204934FF480635A
:100D9000059301A9FFF79CFD2A4631462046FFF73F
:100DA00059FE06B070BD30B587B0044601910D25DF
:100DB000029540230393002304934FF4806305932B
:100DC00001A9FFF785FD41F2883229462046FFF749
:100DD00097FD07B030BD836B1A68D36B43F4807303
:100DE000D363704770B582B0044600230193006856
:100DF000FFF73CFF054610B1284602B070BD2068E1
:100E0000FFF747FF38B90123A364A36C012B0BD074
:100E10002E46284614E00023A3642068FFF726FF2F
:100E20000028F2D00546E7E700212068FFF748FFD9
:100E30000028EDD04FF08055DEE7019B0133019390
:100E4000019A4FF6FE739A4213D896B90021206892
:100E5000FFF736FFE0B912492068FFF749FF064661
:100E6000C0B900212068FFF748FDC30FE5D01E463A
:100E7000E3E7019A4FF6FE739A420ED810F08043D2
:100E800002D001236364B7E7002262641D46B3E722
:100E90000546B1E74FF08055AEE74FF08075ABE700
:100EA000000010C1F8B5846AC66AAEB107460025D5
:100EB0000EE03868FFF7F8FC2070C0F3072363707A
:100EC000C0F30743A370000EE0700434043E013504
:100ED000072DEED9BC62FE62F8BDF0B583B0046A9E
:100EE000466ADEB10746002514E023780193627854
:100EF00043EA02230193A27843EA02430193E27892
:100F000043EA026301930434043E01A93868FFF701
:100F1000CEFC0135072DE8D93C627E6203B0F0BDFE
:100F200070B581B104460E46016D09040068FFF7F3
:100F30003AFF054608B1284670BD00212068FFF73A
:100F4000DCFC3060F7E74FF00065F4E72DE9F04393
:100F500087B0044699B116461F460A4690F83450A9
:100F6000EDB2012D40F0858000238363F119C36D3C
:100F700099420AD9836B43F0007383637AE0836BF1
:100F800043F000638363012574E0032380F8343069
:100F900003680021D9620068C36B43F44A7343F0CD
:100FA0000203C363236C3648D863236C3548D86486
:100FB000236C196521684FEA47284FEA980380316E
:100FC000206C01F0DFFA8146B0B92F4B01221A6084
:100FD000636C934200D076024FF400712068FFF7F3
:100FE0009BFDC8B1236829499963A36B0343A3639D
:100FF000012384F834303DE02268D36B23F49573E9
:10100000D3632368214A9A63A36B43F08043A363AD
:10101000012384F834302DE04FF0FF330093CDF8F6
:10102000048090230293022303930023049301235B
:10103000059369462068FFF75DFD012F12D98223D1
:10104000236331462068FFF797FDB8B123680F4A44
:101050009A63A36B1843A063012384F83430002300
:10106000236307E08123236331462068FFF76CFD8B
:10107000EBE70225284607B0BDE8F0834D46F9E7C7
:10108000DB110008D51500088C852542FF054000BE
:101090002DE9F04186B00446002942D016461F468D
:1010A000884690F83450EDB2012D40F0888000233E
:1010B0008363D319C26D934239D8032380F8343047
:1010C00003680022DA620168CB6B43F4067343F0D5
:1010D0000203CB63C36B3C49D963C36B3B49D964FF
:1010E000C36B1A65436C012B00D076024FF400717C
:1010F0002068FFF711FDF8B9012F27D9A02323633A
:1011000031462068FFF768FD38B32368304A9A6398
:10111000A36B1843A063012384F8343000232363B6
:101120004EE0836B43F000638363012548E0836BEB
:1011300043F00073836343E0236825499963A36BFD
:101140000343A363012384F8343039E090232363FD
:1011500031462068FFF728FDD6E71E4B01221A60B2
:1011600022687F02BB0880324146E06B01F00AFA38
:10117000064698B12268D36B23F4067323F002036A
:10118000D3632368124A9A63A36B43F08043A3633B
:10119000012384F834300023236311E04FF0FF3340
:1011A0000093019790230293002303930493012358
:1011B000059369462068FFF79DFC354600E002254F
:1011C000284606B0BDE8F081D70D0008D515000807
:1011D000FF0540008C852542704710B5846B236B5A
:1011E000822B11D02268D36A23F00803D3622368CC
:1011F00040F23A529A63012384F834300023236387
:10120000204603F0AEF810BD2068FFF7FDFC034652
:101210000028E7D0A26B1343A3632046FFF7DCFF4F
:10122000E0E7000010B4436E9B0F0B70436EC3F3F6
:1012300083634B7090F8673003F003038B7090F872
:101240006630CB7090F865300B7190F864304B715C
:10125000836E1B0DCB80B0F86A3003F00F030B7266
:10126000836EC3F3C0334B72836EC3F380338B72D0
:10127000836EC3F34033CB72836EC3F300330B73BF
:1012800000234B73436C002B40F08880826E40F645
:10129000FC7303EA8203C26E43EA92730B61C36E6E
:1012A000C3F3C2630B7590F86F3003F007034B75FF
:1012B000C36EC3F342538B75C36EC3F38243CB75C6
:1012C000C36EC3F3C2330B760B69013343650A7EE9
:1012D00002F00702023203FA02F242650B7A03F0CF
:1012E0000F040123A34083655B0A03FB02F3C3657C
:1012F0004FF400730366C36EC3F380334B76C36E43
:10130000C3F3C6138B76C36E03F07F03CB76036FF4
:10131000DB0F0B77036FC3F341734B77036FC3F39B
:1013200082638B77036FC3F38353CB77036FC3F36E
:10133000405381F82030002381F82130B0F872202A
:1013400002F0010281F82220026FC2F3C03281F85C
:101350002320026FC2F3803281F82420026FC2F38F
:10136000403281F82520026FC2F3003281F8262036
:10137000026FC2F3812281F82720026FC2F301229B
:1013800081F82820026FC2F3460281F82920012249
:1013900081F82A2018465DF8044B7047012B11D1C3
:1013A000836E1B0403F47C13B0F86E2013430B61AF
:1013B0000B6901339B024365C3654FF4007383657A
:1013C000036698E70368054A9A63836B43F080538A
:1013D0008363012380F834301846DCE7FF054000C2
:1013E00070B590B004460123ADF812300068FFF7E5
:1013F0006BFA00286CD0636C032B45D1636C032B14
:101400005DD1636C032B1DD0BDF81210216509045A
:101410002068FFF79BFC054600285BD1002120686F
:10142000FFF76BFA606604212068FFF766FAA06692
:1014300008212068FFF761FAE0660C212068FFF7B9
:101440005CFA206704212068FFF757FA000DE0647A
:1014500005A92046FFF7E6FE00283ED1226D1204C2
:1014600000232068FFF7EAFB054698BB234653F8A4
:10147000106B93E807008DE80700043494E80E0031
:101480003046FFF7F5F925E02068FFF74AFC0546EE
:1014900000BB00212068FFF730FA60670421206854
:1014A000FFF72BFAA06708212068FFF726FAE0670C
:1014B0000C212068FFF721FAC4F880009EE70DF1A7
:1014C00012012068FFF757FC0546002899D001E07B
:1014D0004FF08065284610B070BD4FF08055F9E799
:1014E00070B58AB0044600230493059306930793CE
:1014F0000893762309930AAB13E907008DE80700E8
:1015000004AB0ECB2068FFF7B3F918B101252846CC
:101510000AB070BD05460F4E002333602068FFF708
:10152000CBF9012333602046FFF75CFC30B1012585
:1015300084F83450A36B0343A363E8E72046FFF726
:101540004FFF0028E3D0012584F83450A36B0343F8
:10155000A363DCE7A0802542A8B110B5044690F84B
:10156000343063B1032384F834302046FFF7B8FFEA
:1015700058B9A0632063012384F8343010BD037789
:1015800003F088F8EEE7012070470120F6E7436C8E
:101590000B60836C4B60C36C8B60036DCB60436DE1
:1015A0000B61836D4B61C36D8B61036ECB6100205A
:1015B000704710B582B004460023019301A9FFF7DC
:1015C000AFFC10B1A36B0343A3630198C0F34320A6
:1015D00002B010BD10B5846B01F00AF902280AD0E0
:1015E000236C5B6DE26B526D012B05D0012A03D099
:1015F0002046FFF7F1FD10BD23680F4A9A63226869
:10160000D36B23F49D73D363A36B43F08043A36335
:101610002046FFF7CEFF0538012805D9012384F8BD
:10162000343000232363E3E72068FFF7EDFAA36B70
:101630000343A363F2E700BFFF05400010B5846BCE
:10164000236840F23A529A632046FFF7B2FF012323
:1016500084F83430002323630538012805D9A36BAF
:1016600053B9204602F075FE10BD2068FFF7CCFA92
:10167000A36B0343A363F2E72046FFF7ADFDF3E757
:1016800010B5846B236840F23A529A632046FFF704
:1016900090FF012384F834300023236305380128A8
:1016A00005D9A36B53B9204602F053FE10BD206844
:1016B000FFF7AAFAA36B0343A363F2E72046FFF701
:1016C0008BFDF3E738B50446056B03685A6B12F4DB
:1016D000004F02D015F0080F28D15A6B12F4807F0A
:1016E0005AD04FF480729A632268D36B23F4434339
:1016F00023F03A03D3632268D36A23F00103D36251
:1017000015F0080F26D015F0220F12D1236840F2F1
:101710003A529A63012384F834300023236315F08E
:10172000030F13D0204602F01CFE01E0FFF7BAFBC6
:1017300038BD2068FFF768FA03460028E6D0A26BA0
:101740001343A3632046FFF747FDDFE7204602F07F
:1017500004FEEDE715F0800FEAD015F0200F0ED152
:1017600015F0030FE4D12268D36A23F00803D36293
:10177000012384F83430204602F0EFFDD8E72068DA
:10178000FFF742FA03460028EAD0A26B1343A36393
:101790002046FFF721FDE3E75A6B12F4804F02D099
:1017A00015F0080F55D1596B40F23A221142BFD0C3
:1017B0005A6B12F0020F03D0A26B42F00202A26336
:1017C0005A6B12F0080F03D0A26B42F00802A2631A
:1017D0005A6B12F0200F03D0A26B42F02002A263DA
:1017E0005A6B12F0100F03D0A26B42F01002A263EA
:1017F0005A6B12F4007F03D0A26B42F00802A2637E
:1018000040F23A729A632268D36B23F44E7323F04A
:101810000203D3632068FFF7F7F9A36B0343A363C5
:1018200015F0080F19D115F0800F81D015F0300F89
:101830001CD115F0030F26D0236C184A1A65206CB2
:1018400000F0D5FE00283FF473AF206CFFF718FFBF
:101850006EE72046FFF741FB6AE7012384F8343046
:10186000002323632046FFF7B7FC61E7E36B0C4AD4
:101870001A65E06B00F0BBFE00283FF459AFE06B47
:10188000FFF7DCFE54E70023A363012284F8342031
:101890002363204602F05DFD4AE700BF8116000881
:1018A0003D16000870470268D36843F00103D36017
:1018B0000268936803F00703062B03D0136843F014
:1018C00001031360002070477047704770477047EE
:1018D00010B5044603681A6912F0020F11D0DA68D5
:1018E00012F0020F0DD06FF002021A61012303778C
:1018F00003689B6913F0030F70D0FFF7E6FF002326
:10190000237723681A6912F0040F12D0DA6812F0F4
:10191000040F0ED06FF004021A61022323772368AC
:101920009B6913F4407F5FD02046FFF7CEFF002372
:10193000237723681A6912F0080F12D0DA6812F0C0
:10194000080F0ED06FF008021A6104232377236872
:10195000DB6913F0030F4ED02046FFF7B6FF0023DC
:10196000237723681A6912F0100F12D0DA6812F088
:10197000100F0ED06FF010021A610823237723682E
:10198000DB6913F4407F3DD02046FFF79EFF002324
:10199000237723681A6912F0010F03D0DA6812F076
:1019A000010F36D123681A6912F0800F03D0DA686C
:1019B00012F0800F34D123681A6912F0400F03D05F
:1019C000DA6812F0400F32D123681A6912F0200F42
:1019D00003D0DA6812F0200F30D110BDFFF774FF8A
:1019E0002046FFF773FF8AE72046FFF76DFF20468A
:1019F000FFF76CFF9BE72046FFF766FF2046FFF7E7
:101A000065FFACE72046FFF75FFF2046FFF75EFF6C
:101A1000BDE76FF001021A61204602F061FCC1E7E8
:101A20006FF080021A61204600F08FF8C3E76FF074
:101A300040021A612046FFF74AFFC5E76FF0200217
:101A40001A61204600F080F8C7E700000368304ABA
:101A5000904212D0B0F1804F0FD0A2F57C4290425C
:101A60000BD002F58062904207D002F5806290426E
:101A700003D002F57842904203D123F070034A6804
:101A80001343234A90422AD0B0F1804F27D0A2F5C9
:101A90007C42904223D002F5806290421FD002F532
:101AA000806290421BD002F57842904217D002F536
:101AB0007052904213D002F5806290420FD002F52E
:101AC000806290420BD0A2F59832904207D002F586
:101AD0008062904203D002F58062904203D123F4E9
:101AE0004073CA68134323F080034A6913430360B9
:101AF0008B68C3620B688362054B984203D003F581
:101B00008063984201D10B690363012343617047ED
:101B100000000140B0B110B5044690F83D3063B10B
:101B2000022384F83D30214651F8040BFFF78EFF65
:101B3000012384F83D30002010BD80F83C30FFF7D1
:101B4000B1FEEDE70120704770477047002800F0B4
:101B5000D98170B582B00446036813F0010F3BD001
:101B6000A64B9B6803F00C03042B2CD0A34B9B6863
:101B700003F00C03082B21D06368B3F5803F4FD0EE
:101B8000B3F5A02F52D09D4B1A6822F480321A6010
:101B90001A6822F480221A606368002B50D000F08B
:101BA000A3FE0546954B1B6813F4003F14D100F0CB
:101BB0009BFE401B6428F5D90320AAE18F4B5B688C
:101BC00013F4800FD8D08D4B1B6813F4003F03D063
:101BD0006368002B00F09881236813F0020F54D043
:101BE000864B9B6813F00C0F3ED0844B9B6803F030
:101BF0000C03082B33D0E368002B67D0804B012205
:101C00001A6000F071FE05467C4B1B6813F0020F52
:101C100053D100F069FE401B0228F5D9032078E17A
:101C2000764A136843F480331360B5E7734B1A6840
:101C300042F480221A601A6842F480321A60ABE7DC
:101C400000F052FE05466D4B1B6813F4003FC3D0F5
:101C500000F04AFE401B6428F5D9032059E1674B88
:101C60005B6813F4800FC6D1644B1B6813F0020F3E
:101C700003D0E368012B40F04981604A136823F0E8
:101C8000F803216943EAC1031360236813F0080FC6
:101C900040D0636963B35B4B01221A6000F024FEFD
:101CA0000546564B5B6F13F0020F33D100F01CFE5C
:101CB000401B0228F5D903202BE1504A136823F07A
:101CC000F803216943EAC1031360DEE74C4B0022AD
:101CD0001A6000F009FE0546484B1B6813F0020F1E
:101CE000D3D000F001FE401B0228F5D9032010E1FB
:101CF000444B00221A6000F0F7FD05463F4B5B6F36
:101D000013F0020F06D000F0EFFD401B0228F5D9BA
:101D10000320FEE0236813F0040F78D0374B1B6CD0
:101D200013F0805F0DD100230193344B1A6C42F005
:101D300080521A641B6C03F080530193019B0125B0
:101D400000E00025304B1B6813F4807F21D0A3688E
:101D5000012B32D0052B36D0284B1A6F22F001020E
:101D60001A671A6F22F004021A67A368002B34D096
:101D700000F0BAFD0646214B1B6F13F0020F45D150
:101D800000F0B2FD801B41F288339842F3D9032062
:101D9000BFE01D4A136843F48073136000F0A4FD94
:101DA0000646194B1B6813F4807FD0D100F09CFDD0
:101DB000801B0228F5D90320ABE0104A136F43F0D3
:101DC00001031367D1E70D4B1A6F42F004021A6743
:101DD0001A6F42F001021A67C7E700F085FD064658
:101DE000064B1B6F13F0020F10D000F07DFD801B1F
:101DF00041F288339842F3D903208AE00038024048
:101E000000004742800E474200700040E5B9A369D8
:101E1000002B7DD0464A926802F00C02082A51D06D
:101E2000022B17D0434B00221A6000F05DFD0446E0
:101E30003F4B1B6813F0007F42D000F055FD001BA4
:101E40000228F5D9032064E0394A136C23F080534B
:101E50001364DCE7374B00221A6000F045FD0546AD
:101E6000334B1B6813F0007F06D000F03DFD401B94
:101E70000228F5D903204CE0E369226A1343626A21
:101E800043EA8213A26A5208013A43EA0243E26A31
:101E900043EA0263264A5360264B01221A6000F08F
:101EA00023FD0446224B1B6813F0007F06D100F08F
:101EB0001BFD001B0228F5D903202AE0002028E0A2
:101EC000002026E0012B26D0194B5B6803F480012B
:101ED000E269914221D103F03F02216A8A421ED178
:101EE000616A47F6C0721A408A421AD103F440323E
:101EF000A16A8A4217D103F07063E26A934214D157
:101F0000002006E001207047012002E0012000E0EF
:101F1000002002B070BD0120FBE70120F9E701209D
:101F2000F7E70120F5E70120F3E70120F1E700BF23
:101F30000038024060004742F8B52F4B9B6803F021
:101F40000C03042B53D0082B53D12B4B5A6802F0AF
:101F50003F025B6813F4800F28D0274B5B68C3F304
:101F6000881358010021C01A61F100018E0146EA70
:101F7000906687013C1A66EB0105E90041EA54715D
:101F8000E000C01841F100014B0243EAD053440283
:101F9000204619460023FEF74DFA174B5B68C3F342
:101FA000014301335B00B0FBF3F023E0124B5B68AD
:101FB000C3F388135C010025E41A65F10005AE0146
:101FC00046EA9466A701381B66EB0501CC0044EA9B
:101FD0005074C500E81844F100018B0243EA9053A5
:101FE0008402204619460023FEF724FAD5E7034869
:101FF00000E00348F8BD00BF0038024000127A003C
:102000000024F400002800F09B8070B50D460446C3
:102010004F4B1B6803F00F038B4208D2CBB24C4AE4
:102020001370136803F00F038B4240F08B8023681A
:1020300013F0020F17D013F0040F04D0454A936831
:1020400043F4E0539360236813F0080F04D0414A2F
:10205000936843F4604393603E4A936823F0F0032F
:10206000A1680B439360236813F0010F32D06368BB
:10207000012B21D09A1E012A25D9364A126812F066
:10208000020F61D033498A6822F0030213438B6048
:1020900000F02AFC06462F4B9B6803F00C03626895
:1020A000B3EB820F16D000F01FFC801B41F2883387
:1020B0009842F0D9032042E0264A126812F4003F09
:1020C000E0D101203BE0234A126812F0007FD9D111
:1020D000012034E01E4B1B6803F00F03AB4207D90D
:1020E000EAB21B4B1A701B6803F00F03AB422DD1F1
:1020F000236813F0040F06D0164A936823F4E053C4
:10210000E1680B439360236813F0080F07D0114A6E
:10211000936823F46043216943EAC1039360FFF7A6
:102120000BFF0C4B9B68C3F303130B4AD35CD840E3
:102130000A4B18600A4B186802F064FB002070BD5F
:10214000012070470120FAE70120F8E70120F6E7B7
:10215000003C024000380240A8700008180000202F
:1021600004000020014B1868704700BF18000020D1
:1021700008B5FFF7F7FF044B9B68C3F38223034ABC
:10218000D35CD84008BD00BF00380240B8700008DA
:102190000F2303600B4B9A6802F0030242609A68B7
:1021A00002F0F00282609A6802F4E052C2609B681A
:1021B000DB0803F4E0530361034B1B6803F00F03D8
:1021C0000B60704700380240003C024000230F2B98
:1021D00000F2D980F0B583B039E0072200E0002298
:1021E000B2403A430234684E46F82420674A1468E5
:1021F000EA4324EA05064F6817F4803F01D045EA18
:102200000406624C2660646802EA04064F6817F40C
:10221000003F01D045EA04065C4C6660A46802EA0F
:1022200004064F6817F4801F01D045EA0406574C96
:10223000A660E46822404E6816F4001F01D045EA0B
:102240000402524CE26001330F2B00F29A8001220B
:102250009A400C6804EA020532EA0404F3D14C689F
:10226000661E012E03D9112C01D0122C12D18668C2
:102270005F000324BC4026EA0406CC68BC4034431B
:102280008460466826EA02064C68C4F300129A404D
:1022900032434260C7685E000324B440E24327EA49
:1022A00004078C68B4403C43C4604C68022C01D0E5
:1022B000122C13D1DF08083750F827E003F0070489
:1022C0004FEA840C0F2404FA0CF42EEA040E0C6975
:1022D00004FA0CF444EA0E0440F827400468144061
:1022E0004A6802F00302B240224302604A6812F0D8
:1022F000805FA8D000220192254A546C44F48044A7
:102300005464526C02F480420192019A9C08A61C0B
:102310001D4A52F8267003F0030296000F22B240C5
:1023200027EA02071B4A90423FF459AF02F5806248
:1023300090421AD002F58062904218D002F5806275
:10234000904216D002F58062904214D002F580626D
:10235000904212D002F58062904210D002F5806265
:1023600090423FF43AAF08223AE7012238E70222CE
:1023700036E7032234E7042232E7052230E706225B
:102380002EE703B0F0BD704700380140003C01402B
:1023900000380240000002400AB181617047090420
:1023A00081617047436931EA030301D0816170475D
:1023B00009048161704730B405682C6824F48024D6
:1023C0002C60046863608368402B05D003689960C3
:1023D0000368DA6030BC704703689A600368D960AC
:1023E000F8E7000010B40368D9B210390C4AA2FB18
:1023F000014212090B4CA25CC2655F2909D923F482
:102400007F7323F0030304338365806D5DF8044B11
:10241000704723F47F7323F003038365F5E700BF60
:10242000ABAAAAAAC06F0008836A826992B9012B7D
:102430000AD0022B02D00BB100207047C36A13F000
:10244000807F28D100207047C36AB3F1C07F24D0B9
:1024500000207047B2F5005F09D0022B25D9032B6D
:1024600025D1C36A13F0807F23D100207047032B4E
:1024700003D8DFE803F01404140A00207047C36A8D
:1024800013F0807F0DD100207047C36AB3F1C07F85
:1024900009D00020704701207047012070470120BB
:1024A00070470120704701207047012070470020CD
:1024B000704701207047000070B5044600F014FA20
:1024C000002C5BD00546002384F83430022384F8C6
:1024D00035302268136823F00103136023681A68FB
:1024E00012F0010F0AD000F0FFF9431B052BF5D9BC
:1024F00020236365032084F8350070BD1A682048E6
:1025000010406168A2680A43E1680A4321690A43EE
:1025100061690A43A1690A43E1690A43216A0A43DE
:102520000243616A04291ED01A602668756925F085
:102530000705636A1D43042B07D1A36A1D43E36AA1
:102540001BB12046FFF770FF90B975612046FFF779
:1025500049FFE26D3F2393408360002060650123C3
:1025600084F83530C9E7E16A206B01430A43DBE7B1
:1025700040236365012084F83500BEE70120BCE7F5
:102580003F8010F038B50446856D90F8340001287E
:102590002BD0012084F8340094F83500C0B2012813
:1025A00004D0002384F83430022038BD022084F89F
:1025B0003500002060652046FFF7FDFEE26D3F23F9
:1025C0009340AB602268136843F016031360236CDA
:1025D00023B12268136843F008031360226813686C
:1025E00043F0010313600020DFE70220DDE790F8ED
:1025F0003530DBB2022B03D08023436501207047C6
:10260000052380F835300268136823F00103136056
:1026100000207047F0B583B0044600230193724B4D
:102620001D68724BA3FB0535AD0A876D3E68C26D10
:1026300008239340334210D003681A6812F0040F45
:102640000BD01A6822F004021A60C26D082393406E
:10265000BB60436D43F001034365E26D012393408A
:10266000334209D02268526912F0800F04D0BB6057
:10267000636D43F002036365E26D042393403342CC
:1026800009D02268126812F0020F04D0BB60636D9B
:1026900043F004036365E26D10239340334224D07A
:1026A0002268126812F0080F1FD0BB6023681A68F6
:1026B00012F4802F0DD01B6813F4002F04D1236C6B
:1026C0009BB12046984710E0A36C73B12046984711
:1026D0000BE01A6812F4807F03D11A6822F0080216
:1026E0001A60236C0BB120469847E26D202393407B
:1026F000334255D02268126812F0100F50D0BB60E0
:1027000094F83530DBB2052B0ED023681A6812F42A
:10271000802F33D01B6813F4002F2AD1636C002B59
:102720003ED0204698473BE02268136823F016030A
:1027300013602268536923F080035361236CA3B1B3
:102740002268136823F008031360E26D3F2393406F
:10275000BB60002384F83430012384F83530236DC6
:10276000002B3FD0204698473CE0A36C002BE7D1DC
:10277000EBE7E36BA3B12046984711E01A6812F427
:10278000807F09D11A6822F010021A60002384F8B1
:102790003430012384F83530E36B0BB12046984781
:1027A000636DFBB1636D13F0010F17D0052384F83F
:1027B00035302268136823F001031360019B013355
:1027C0000193AB4204D823681B6813F0010FF5D1C5
:1027D000002384F83430012384F83530E36C0BB1E6
:1027E0002046984703B0F0BD18000020B5814E1B6D
:1027F000406D7047074AD36823F4E0631B041B0C49
:10280000000200F4E060034343F0BF6343F400338D
:10281000D360704700ED00E030B4174BDB68C3F3C2
:102820000223C3F10704042C28BF04241D1D062D18
:1028300018D9033B4FF0FF3505FA04F421EA0401EF
:10284000994005FA03F322EA0303194300280BDB3E
:102850000901C9B200F1604000F5614080F8001341
:1028600030BC70470023E5E700F00F000901C9B252
:10287000024B1954F4E700BF00ED00E014ED00E056
:10288000002807DB00F01F02400901239340024AA1
:1028900042F82030704700BF00E100E008B50B4B64
:1028A0001A6842F400721A601A6842F480621A6070
:1028B0001A6842F480721A600320FFF79BFF002021
:1028C00001F0A0FF01F0C4FE002008BD003C024062
:1028D000034A1168034B1B780B441360704700BF19
:1028E0007849002000000020014B1868704700BFA5
:1028F0007849002038B50446FFF7F6FF0546B4F1E5
:10290000FF3F02D0044B1B781C44FFF7EDFF401B38
:10291000A042FAD338BD00BF0000002008B5044B28
:1029200003EB8002526852680344187A904708BD4E
:102930006400002008B5084B1B5C53B9064B01220C
:102940001A5403EB8002526812681844007A9047C8
:1029500008BD0020FCE700BF6400002038B5044C2F
:1029600004EB80056D68AD680444207AA84738BD43
:102970006400002038B5044C04EB80056D68ED68F8
:102980000444207AA84738BD6400002010B5044BE9
:1029900003EB8004646824690344187AA04710BDDF
:1029A000640000204278007840EA02207047C27834
:1029B000837843EA0222437843EA0223007840EA1C
:1029C000032070470170090A417070470170C1F31C
:1029D00007234370C1F307438370090EC17070472A
:1029E00010B414462AB10A78013102700130013C5A
:1029F000F9D15DF8044B704701700130013AFBD109
:102A0000704710B40446207801340B780131C01AA5
:102A1000013A01D00028F6D05DF8044B7047034618
:102A2000187818B1884201D00133F9E770470000E7
:102A300030B400252B4601E001250133012B15D8C8
:102A40001A01174CA258002AF6D00468A242F4D109
:102A5000134A02EB0312546882689442EDD1104A83
:102A600002EB0312946842699442E6D1022B0AD029
:102A7000A1B90B4A02EB03139B89B3F5807F0BD0FE
:102A8000002030BC70472DB9022901D01220F8E790
:102A90000020F6E70020F4E71020F2E71020F0E72E
:102AA00040000020002000E00130012804D803018C
:102AB000034AD358002BF7D1023818BF01207047C2
:102AC0004000002070B4002300E00133012B13D834
:102AD0001A01244CA45802689442F6D1214A02EB10
:102AE0000312546882689442EFD11E4A02EB03122B
:102AF000946842699442E8D1022B13D021B1194A5B
:102B000002EB0312928952BB21BB164A02EB03125D
:102B10009189013189B2134A02EB03129181581C49
:102B200070BC70470023012B05D81A010D4CA25828
:102B30000AB10133F7E7022B0FD00668094D1C01DB
:102B400005EB03122E5184685460406990600020A8
:102B50009081D3E74FF48071DDE70020E0E70020AB
:102B6000DEE700BF400000200138012815D80D4BDA
:102B700003EB00139B89B3F5807F03D01BB1013BAE
:102B80009BB200E00023074A02EB0012938133B9A5
:102B900003010020034AD0507047022070470020F4
:102BA000704700BF40000020002303E05DF8044BA5
:102BB00070470133012B11D81A0109498A58824202
:102BC000F7D110B41A0100248C500133012BEDD839
:102BD0001A0103498A588242F7D1F3E7704700BFD0
:102BE000400000200239C369023B8B4204D943896B
:102BF000006B01FB03007047002070470268C36A46
:102C000004339089B1FBF0F15289B1FBF2F11868FD
:102C100030B1814202D3091A0833F8E758680844F2
:102C2000704770B506460D4601F11A00FFF7BAFE6F
:102C30003378032B00D070BD044605F11400FFF774
:102C4000B1FE44EA0040F6E770B506460C4615466C
:102C500091B204F11A00FFF7B5FE3378032B00D0D0
:102C600070BD290C04F11400FFF7ACFEF8E700007A
:102C70002DE9F84F81468A460F6800F1240B0B229C
:102C800020215846FFF7B8FE002633464FF00808CB
:102C90002CE001357B5D2F2BFBD05C2BF9D03D4424
:102CA000CAF80050002E43D099F82430E52B35D0D7
:102CB000202C37D8042389F82F30002028E008265C
:102CC0004FF00B0811E014F0800F23D12146194872
:102CD000FFF7A5FE50BBA4F16103DBB2192B01D8AD
:102CE000203CE4B20BF8064001362B465D1CFC5C30
:102CF000202CD4D92F2CCDD05C2CCBD02E2C01D095
:102D0000B045E0D8B8F10B0F0ED02E2CD7D006204E
:102D1000BDE8F88F803C084B1C5DD7E7052389F898
:102D20002430C5E70023C6E70620F1E70620EFE7D9
:102D30000620EDE7C86F0008D86F0008014600685C
:102D400008B1024603E04FF0FF30704701321378BC
:102D5000202B01D93A2BF9D13A2B01D00020704712
:102D600010B4034613F8010B3038092808D89A42EA
:102D700002D04FF0FF3005E038B901320A6001E0BF
:102D80004FF0FF305DF8044B70474FF0FF30F9E72C
:102D900030B108B5006901F04BF900B1012008BD60
:102DA000002070472DE9F041C57815B92846BDE8E7
:102DB000F0810446476B00F1380801233A4641464A
:102DC0004078FFF7D7FD054698B90023E370A36A62
:102DD000FB1A226A9342E9D2A678012EE6D9236A29
:102DE0001F4401233A4641466078FFF7C3FD013E88
:102DF000F3E70125DAE770B5436B8B4202D1002679
:102E0000304670BD04460D46FFF7CCFF064600284D
:102E1000F6D101232A4604F138016078FFF79EFDC0
:102E200010B101264FF0FF356563E9E738B5044678
:102E30000023C3704FF0FF334363FFF7DCFF30BB69
:102E4000054604F23620FFF7ADFD4AF655239842B9
:102E50001FD194F83830E92B07D0A36B03F0FF1390
:102E60000D4A934201D0022514E004F16E00FFF7F1
:102E70009EFD20F07F40094B98420BD004F18A0060
:102E8000FFF795FD064B984204D0022502E0042589
:102E900000E00325284638BDEB0090004641540071
:102EA000464154332DE9F04F87B00D4616460023B6
:102EB0000B60FFF743FF071EC0F26D81C84B53F84C
:102EC0002740002C00F069812046FFF761FF0028B1
:102ED00000F068812C6006F0FE06237873B16078FC
:102EE000FFF71CFD10F0010508D1002E00F05681FF
:102EF00010F0040F00F052810A254FE100232370E7
:102F0000F8B26070FFF716FD10F0010F40F04C8131
:102F10001EB110F0040F40F0498104F10C020221AF
:102F20006078FFF733FD0546002840F04181A28913
:102F3000A2F500739BB2B3F5606F00F23B81531EA4
:102F40001A4201D0012529E100212046FFF76EFF3A
:102F5000022800F0C2800026042800F02D810128FC
:102F600000F22C8104F14300FFF71CFDB4F80C8043
:102F7000404540F0258104F14E00FFF713FD074660
:102F800020B904F15C00FFF712FD0746276294F8B0
:102F90004820A270531EDBB2012B00F2138107FB05
:102FA00002F3009394F84590A4F80A90B9F1000F49
:102FB00000F00A8109F1FF3319EA030F40F006819E
:102FC00004F14900FFF7EEFC824620814FEA581BCE
:102FD000B0FBFBF30BFB13039BB2002B40F0F8801C
:102FE00004F14B00FFF7DEFC019020B904F158001A
:102FF000FFF7DDFC019004F14600FFF7D3FC01462A
:10300000002800F0E780009BC318BAFBFBFB5B4481
:10301000019A9A42C0F0E080D21AB2FBF9F04A4518
:10302000C0F0DC804FF6F57290426ED94FF0030B82
:1030300040F6F572904201D84FF0010B00F1020901
:10304000C4F81C9066628A19A26233442363BBF100
:10305000030F5DD0BAF1000F00F0CE80009B1A4440
:10306000E262BBF1020F64D009EB490309F00109E8
:1030700009EB5309C14409F1FF33B3FBF8F8B84534
:1030800000F2BC804FF0FF33A361636180232371A2
:10309000BBF1030F50D084F800B0524A13880133BB
:1030A0009BB21380E3802046FFF77EFD76E0002090
:1030B00006AB03EB860343F8100C0136032E0ED843
:1030C00004F13800330103F5DF7318440379002B52
:1030D000EDD00830FFF76BFCEAE70026EEE70027AB
:1030E0000AE031462046FFF7A1FE01287FF634AF03
:1030F0000137032F3FF630AF06AB03EB870353F8DE
:10310000106C002EEDD10320F2E74FF0020B8FE799
:1031100004F16200FFF746FC002869D1BAF1000F04
:1031200068D104F16400FFF742FCE0624FEA8909CC
:10313000A0E74FEA49099DE704F16800FFF732FC78
:103140000128A8D1711C2046FFF755FE0028A2D106
:103150000023237104F23620FFF724FC4AF655239E
:10316000984298D104F13800FFF721FC1E4B984299
:1031700091D104F50770FFF71AFC1C4B98428AD1D5
:1031800004F50870FFF713FCA06104F50970FFF760
:103190000EFC60617FE70B2500E00C25284607B098
:1031A000BDE8F08F0F25F9E70325F7E70A25F5E7D6
:1031B0000125F3E70125F1E70125EFE70D25EDE70F
:1031C0000D25EBE70D25E9E70D25E7E70D25E5E7FB
:1031D0000D25E3E70D25E1E70D25DFE70D25DDE70B
:1031E0003C00002060000020525261417272416137
:1031F0000D25D3E70D25D1E70D25CFE70D25CDE72B
:103200002DE9F047012940F2968004460D46174605
:10321000C3698B4240F291800378022B4FD0032B7D
:1032200067D0012B03D002263046BDE8F08701EBC2
:103230005108816A8389B8FBF3F31944FFF7DBFD7A
:1032400006460028F0D104F1380908F1010AA289E4
:10325000B8FBF2F302FB138815F0010524D019F92D
:10326000083003F00F033A0102F47F621343DBB22C
:1032700009F808300123E370A16AA389BAFBF3F3CC
:1032800019442046FFF7B7FD06460028CCD1A28995
:10329000BAFBF2F302FB13AA45B1C7F3071209F810
:1032A0000A200123E370BFE7FBB2E1E719F90A2026
:1032B00022F00F02C7F303273A43D2B2EFE7816A45
:1032C00083895B08B5FBF3F31944FFF794FD0646C9
:1032D0000028A9D104F138006D00A289B5FBF2F3F2
:1032E00002FB1355B9B22844FFF76CFB0123E370CE
:1032F0009AE7816A83899B08B5FBF3F31944FFF7CA
:103300007AFD064600288FD127F0704704F1380374
:10331000AD00A189B5FBF1F201FB12551D44284611
:10332000FFF745FB00F0704139432846FFF74EFB9D
:103330000123E37078E7022676E7022674E7F8B502
:10334000056801296CD90C46EB698B426AD92B7848
:10335000022B37D0032B4BD0012B01D0012060E092
:1033600001EB5106A96AAB89B6FBF3F31944284671
:10337000FFF741FD10B14FF0FF3052E0771CAB89F1
:10338000B6FBF3F203FB12662E4496F83860A96A86
:10339000B7FBF3F319442846FFF72DFD002843D16E
:1033A000AA89B7FBF2F302FB13773D4495F8380086
:1033B00046EA002014F0010F01D0000931E0C0F30B
:1033C0000B002EE0A96AAB895B08B4FBF3F3194448
:1033D0002846FFF710FD50BB05F138006400AA89AC
:1033E000B4FBF2F302FB13442044FFF7DBFA18E0CE
:1033F000A96AAB899B08B4FBF3F319442846FFF78D
:10340000FAFCB8B905F13800A400AA89B4FBF2F3BC
:1034100002FB13442044FFF7CAFA20F0704000E09A
:103420000120F8BD0120FCE74FF0FF30F9E74FF035
:10343000FF30F6E74FF0FF30F3E72DE9F041D0F829
:103440000080B1F5001F4CD207460E4611F01F0F49
:1034500049D1416184682CB998F80030022B01D918
:10346000D8F82C40ECB9B8F80830B3EB561F3CD96B
:10347000D8F82C30FB61BC61FB69E3B3B8F80C20D1
:10348000B6FBF2F21344FB6108F13803B8F80C20E4
:10349000B6FBF2F102FB11661E443E620020BDE85D
:1034A000F081B8F80A30B8F80C5005FB03F500E0DD
:1034B000761BAE420FD321463846FFF740FF044645
:1034C000B0F1FF3F13D0012813D9D8F81C30834244
:1034D000EED80220E3E721464046FFF783FBF86180
:1034E000C9E70220DBE70220D9E70220D7E7012065
:1034F000D5E70220D3E70220D1E72DE9F0410546C8
:1035000006680F4651B9D6F81480B8F1000F12D0F2
:10351000F369434511D84FF001080EE0FFF70FFFA4
:103520000346012847D9B0F1FF3F49D0F2698242F2
:1035300046D8B84601E04FF0010844460CE0214669
:103540002846FFF7FCFE034678B1012838D0B0F1D9
:10355000FF3F35D0444532D00134F369A342EED861
:10356000B8F1010F29D90224E9E74FF0FF322146D3
:103570003046FFF745FE034600B977B9A3B9746139
:10358000B269F369023B9A4201D8013AB2613379D8
:1035900043F001033371234612E022463946304698
:1035A000FFF72EFE0346E9E7012B01D0012307E0D8
:1035B0004FF0FF3304E0012302E0002300E000238A
:1035C0001846BDE8F081F8B50C46056801292ED9EA
:1035D00006461146EB69A3422BD94AB14FF0FF32A0
:1035E0002846FFF70DFE074610B123E0A24221D97D
:1035F000274621463046FFF7A2FE0446E0B10128E7
:103600001CD0B0F1FF3F1BD0002239462846FFF7FF
:10361000F7FD074670B9AB69EA69911E8B42E5D2A6
:103620000133AB612B7943F001032B71DEE70227F5
:1036300000E002273846F8BD0027FBE70227F9E73C
:103640000127F7E72DE9F84306684569C369002BB0
:1036500074D004460F462035B5F5001F70D2B189ED
:10366000B5FBF1F201FB12523AB90133C361816932
:10367000A1B93389B3EB551F0CD9656106F1380345
:10368000B189B5FBF1F201FB12551D442562002002
:10369000BDE8F8830023C3610420F9E7B289B5FBD4
:1036A000F2F27389013B12EA0308E6D1FFF747FE05
:1036B0008146012846D9B0F1FF3F45D0F3698342E6
:1036C00034D88FB1A1692046FFF717FF8146002843
:1036D0003CD001283CD0B0F1FF3F3BD03046FFF753
:1036E00061FB28B10120D3E70023E3610420CFE789
:1036F000B289002106F13800FFF77EF949463046CD
:10370000FFF770FA7063738998450BD20123F37049
:103710003046FFF747FBF8B908F10108736B013336
:103720007363F0E7736BA3EB08037363C4F818903B
:1037300049463046FFF756FAE0619EE70420A7E7C6
:103740000420A5E70220A3E70120A1E707209FE7C7
:1037500002209DE701209BE7012099E770B5044610
:1037600006680021FFF769FE054640B1284670BD96
:1037700000212046FFF766FF05460028F6D1E169E3
:103780003046FFF738FB05460028EFD1206A037862
:103790007BB1C37A03F03F03A371C37A13F0080F20
:1037A000E6D10B2204F12401FFF72BF90028DFD129
:1037B000DCE70425DAE730B583B0044601910568FB
:1037C00001E001330193019B1A782F2AF9D05C2A7A
:1037D000F7D00022A2601B781F2B1ED8802384F80C
:1037E0002F3011462046FFF728FE0346184603B047
:1037F00030BD0428FAD112F0040FF7D10523F5E704
:1038000005F138016069AA89B0FBF2F302FB1303EA
:1038100019442846FFF705FAA06001A92046FFF7E2
:1038200027FA03460028E1D12046FFF797FF94F8D6
:103830002F2003460028DCD112F0040FD6D1A37943
:1038400013F0100FDCD10523D0E7F8B504460E467F
:1038500007680021FFF7F1FD0246C0B9002508E026
:103860000135B54213D001212046FFF7EBFE024699
:1038700068B9E1693846FFF7BEFA024638B9236AEB
:103880001B78E52BECD0002BEAD00025EBE7042ACF
:1038900001D01046F8BD0722FBE770B50446066864
:1038A0000121FFF7D2FF054608B1284670BDE16946
:1038B0003046FFF7A0FA05460028F6D12022002165
:1038C000206AFFF799F80B2204F12401206AFFF720
:1038D00087F80123F370E8E770B50446FFF762FA52
:1038E000054648B92378032B08D00022114660789A
:1038F000FFF74CF800B10125284670BD2379012B54
:10390000F3D104F13806A28900213046FFF774F89C
:103910004AF6552104F23620FFF754F80E49304696
:10392000FFF754F80D4904F50770FFF74FF8A16948
:1039300004F50870FFF74AF8616904F50970FFF7AC
:1039400045F8626A01326263012331466078FFF70D
:1039500011F800232371C8E752526141727241612C
:1039600058B108B50C2903D00B2901D00F2900D17B
:1039700008BD006900F066FBFAE7704738B50D46F0
:10398000044608B3006808B3037813B3A288C38859
:103990009A4203D0092000242C6038BDFFF7F8F9C3
:1039A00010B90F200024F7E723685878FEF7B6FF18
:1039B00010F0010001D12468EEE700212068FFF734
:1039C000CFFF09200024E7E70920E5E704460920A6
:1039D000E2E709200024DFE770B584B00190009190
:1039E0001646039103A8FFF7A9F9041E2CDB1A4B16
:1039F00053F8245045B12846FFF7D6F8286900F05F
:103A000012FB18B300232B70019B3BB100221A70EC
:103A100001991031E0B200F0FAFAC8B1019B0E4AE8
:103A200042F82430B3B1012E03D00024204604B064
:103A300070BD002201A96846FFF734FA044601462A
:103A40000198FFF78DFFF1E70B24EFE70224EDE784
:103A50000224EBE70024E9E73C0000202DE9F043D5
:103A600091B00191002800F015811546064602F03C
:103A70003F073A4603A901A8FFF714FA044650B1DC
:103A80000CB10023336021460398FFF769FF2046FD
:103A900011B0BDE8F083039B0493019904A8FFF7DC
:103AA0008AFE044660B99DF93F30002B50DB37F0A9
:103AB000010314BF0121002104A8FEF7B9FF044649
:103AC00015F01C0F5AD0002C4ED0042C42D047F0D9
:103AD0000807002C61D117F0080F5ED000F090FDB0
:103AE000054601460C980E30FEF770FF29460C98EB
:103AF0001630FEF76BFF0C9B2022DA72DDF80C808B
:103B0000DDF8309049464046FFF78BF80546002225
:103B100049464046FFF798F800210C981C30FEF704
:103B200055FF039B0122DA70BDB3039BD3F83480A9
:103B30000022294604A8FFF746FD044668BB41461B
:103B40000398FFF758F90446013D039B5D6124E0AB
:103B50000624B5E7FEF7A6FF08B91224B7E704A8C4
:103B6000FFF79BFE0446B2E79DF8163013F0110FE5
:103B700012D115F0040FACD008240EE06CB99DF8FA
:103B8000163013F0100F4ED115F0020F05D013F0C0
:103B9000010F02D0072416E00724A4B917F0080F7C
:103BA00001D047F04007039B5B6B73620C9BB362D1
:103BB00037F0010314BF0121002104A8FEF782FFA2
:103BC0003061002864D0002C7FF45AAF039DDDF8EB
:103BD000308041462846FFF724F8B06008F11C0009
:103BE000FEF7E5FEF0600021F1623560EB88B380FE
:103BF000377571753162B16106F130084FF480524A
:103C00004046FEF7F9FE17F0200F3FF439AFF56894
:103C1000002D3FF435AFB561039B5A899F8907FB9F
:103C200002F7B16805E00424CDE7B1F1FF3F0BD006
:103C3000ED1B5CB9BD4209D93046FFF780FB014658
:103C40000128F2D80224F0E70124F1E7F161002C09
:103C50007FF416AF039FB7F80C90B5FBF9F309FB9F
:103C60001353002B3FF40CAF3846FEF7BBFF08B9E7
:103C7000022406E7B5FBF9F2024432620123414611
:103C80007878FEF76BFE00283FF4FAAE0124F8E6E0
:103C90000224F5E60924FAE62DE9F04F85B0044642
:103CA0000F46164698460023C8F80030019003A935
:103CB000FFF764FE009060B9637D00934BB9237DEC
:103CC00013F0020F0DD0A369F342C0F0CB80DE43A6
:103CD000C8E000990398FFF743FE009805B0BDE8DF
:103CE000F08F07210398FFF73BFE07230093F4E7CB
:103CF000E36A002B3DD02046FEF780FF002800F04D
:103D0000DF8001283AD0B0F1FF3F3FD0E061A368E7
:103D100003B9A06094F91430002B3FDBDDF80CA050
:103D2000E1695046FEF75EFF814600284CD0A94469
:103D3000BAF80C30B6FBF3FBB34262D805EB0B03C9
:103D4000BAF80A20934201D9A2EB050B5B464A461A
:103D500039469AF80100FEF70DFE00283CD1216A91
:103D6000A1EB090159453FD3039B9B890BFB03FB47
:103D700068E0E1690198FFF7C0FBBFE702256575C0
:103D800029460398FFF7ECFD0095A6E70125657528
:103D900029460398FFF7E4FD00959EE70123226A78
:103DA00004F1300103984078FEF7E4FD20B9237D4B
:103DB00003F07F032375B1E7012565752946039854
:103DC000FFF7CEFD009588E7022565752946504628
:103DD000FFF7C6FD009580E7012565752946039824
:103DE000FFF7BEFD009578E7039B9A8902FB0171FE
:103DF00004F13000FEF7F4FD237D03F07F0323750B
:103E0000B2E7236A4B4503D0A269E3689A4245D3DF
:103E1000C4F82090039BB3F80CB0A069B0FBFBF38F
:103E20000BFB1303ABEB030B5E4500D2B34604F16F
:103E300030005A4639461844FEF7D2FD237D63F020
:103E40007F0323755F44A3695B44A361E2689342E7
:103E500038BF1346E360D8F800305B44C8F8003040
:103E6000A6EB0B0666B3A169039A9589B1FBF5F33E
:103E700005FB1313002BCDD1B1FBF5F55389013BA5
:103E80001D407FF447AF00297FF432AFA0680028BF
:103E90007FF434AF0198FFF730FB2FE701234A4648
:103EA00004F130019AF80100FEF758FD0028AFD068
:103EB0000125657529460398FFF752FD00950CE72B
:103EC000237D43F04003237500210398FFF748FD4D
:103ED00003E770B582B0044601A9FFF74FFD054620
:103EE00078B9237D13F0400F0BD013F0800F0FD162
:103EF00000F086FB0646616A0198FEF77CFF0546E6
:103F0000D0B129460198FFF72BFD284602B070BDBD
:103F10000123226A04F1300101984078FEF72AFD5E
:103F200020B9237D03F07F032375E1E70121019888
:103F3000FFF716FD0125E8E7A56AEB7A43F02003B9
:103F4000EB72A26829462068FEF77EFEE16805F163
:103F50001C00FEF73BFD314605F11600FEF736FD6D
:103F6000002105F11200FEF72DFD019B0122DA7000
:103F70000198FFF7B1FC0546237D23F0400323752C
:103F8000BFE730B583B00446FFF7A3FF054610B185
:103F9000284603B030BD01A92046FFF7EFFC0546D7
:103FA0000028F5D12069FEF7DFFD054608B900239A
:103FB000236000210198FFF7D3FCE9E7104B5B7AFF
:103FC000E3B970B4044603F0FF000D4B5D7AEDB227
:103FD00000265E555D7A03EB85056C605C7A1C44B7
:103FE00022725A7A541CE4B25C7230320A703A235C
:103FF0004B702F238B70CE7070BC704701207047C0
:104000006400002008B50022FFF7D8FF08BD10B5F6
:104010000C4600220121084602F0B2FA2060003866
:1040200018BF012010BD08B502F094FB012008BDA7
:1040300008B54FF47A7102F00BFB08B1002008BDFF
:104040000120FCE708B502F047FB08BD054B064A16
:104050001A6000225A609A60DA601A615A619A61A5
:10406000704700BFAC4A0020002C014030B589B039
:104070000024039404940594069407940094194B27
:104080001A6B42F080021A631A6B02F080020092EF
:10409000009A01941A6B42F008021A631A6B02F03C
:1040A00008020192019A02941A6B42F004021A6308
:1040B0001B6B03F004030293029B0B4D22464FF44B
:1040C00070412846FEF768F94FF4704303930123CB
:1040D00004930594069403A92846FEF777F809B0DF
:1040E00030BD00BF00380240000C024010B582B065
:1040F000002401940D4B1A6B42F480021A631B6B6F
:1041000003F480030193019B224605213B20FEF727
:1041100083FB3B20FEF7B4FB224605214520FEF73A
:104120007BFB4520FEF7ACFB02B010BD003802401F
:1041300038B500222D492E48FFF74EFC0A222D49A2
:104140002D48FFF78BFC2D4B1870D8B1002414E0DC
:104150002B4D01224FF480512846FEF71DF9C8204F
:1041600002F0F0F900224FF480512846FEF714F9CE
:10417000C82002F0E7F90134E4B2204B1B78A342D7
:10418000E6D8FEE704461F4B0F221F491A48FFF7E7
:1041900083FD1A4A107000BB1748FFF7F2FE4FF478
:1041A00080411748FEF7FEF8642002F0CBF9F6E7ED
:1041B000134D01224FF400512846FEF7EDF8C820B8
:1041C00002F0C0F900224FF400512846FEF7E4F84F
:1041D000C82002F0B7F90134E4B2084B1B78A342BF
:1041E000E6D80548FFF7CDFEFEE700BF384B0020BC
:1041F0006C5B0020587000083C4B0020304B0020C6
:10420000000C0240E04900200800002030B595B0C5
:104210003022002108A8FCF7BDF800240394049480
:1042200005940694079401941B4B1A6C42F080523B
:104230001A641B6C03F080530193019B0294174B8B
:104240001A6842F480421A601B6803F480430293A8
:10425000029B012308934FF48033099302250E95A6
:104260004FF480030F9304231093A8231193129506
:104270000723139308A8FDF769FC0F230393049504
:1042800005944FF4A05306930793052103A8FDF767
:10429000B9FE15B030BD00BF0038024000700040CC
:1042A00008B5FEF7FBFAFFF7B1FFFFF7DFFEFFF7F8
:1042B0001DFFFFF7CBFE00F095F902F06DF8054AFF
:1042C0000021054802F0D2F8044B186002F094F87F
:1042D000FEE700BF7070000831410008DC49002093
:1042E00008B50268034B9A4200D008BDFEF7F0FA09
:1042F000FBE700BF001000407047000008B5134600
:104300000A4601460248FCF721FE00B1012008BD23
:10431000AC4A002008B513460A4601460248FCF79D
:10432000B7FE00B1012008BDAC4A002008B5034823
:10433000FDF73FF9043818BF012008BDAC4A002042
:1043400008B501460148FDF722F908BDAC4A002036
:10435000704708B5FFF7FCFF08BD08B500F01EF96F
:1043600008BD08B500F02CF908BD82B001238DF816
:1043700007309DF8070002B07047000008B5FFF74E
:10438000F4FF012801D0012008BD0248FDF7E4F840
:10439000FAE700BFAC4A002008B5074B01221A70AB
:1043A000FFF7C4FF20B9044A137803F0FE0313702B
:1043B000014B187808BD00BF1700002010B5044657
:1043C000164B01221A7002F005F8022802D0134B96
:1043D000187810BDFFF7D2FF88B1104B1B78DBB205
:1043E000012BF4D00E4B1B687BB10D4B1B68002BCF
:1043F000EDD10A4A137843F001031370E7E7204632
:10440000FFF7CAFF054B1870E7E7002202210A20D8
:1044100002F0C4F9024B1860E7E700BF1700002064
:104420007000002008B5FFF7B7FF08BD38B5054696
:1044300002F006F8044602F003F8001BA84205D279
:10444000FFF774FF0028F6D1002001E04FF0FF30A5
:1044500038BD000070B582B00C4615461E4647F2C6
:104460003050FFF7E3FF002828DB3246294620467C
:10447000FFF744FF08B1012021E047F2305300224A
:104480000DF106011048006802F030FAC8B9BDF815
:104490000630012B01D0012011E001F0D1FF0446CC
:1044A00001F0CEFF001B47F22F53984204D8FFF7CC
:1044B0003DFF0028F4D102E0012000E0012002B01D
:1044C00070BD0120FBE700BF7000002070B582B016
:1044D0000C4615461E4647F23050FFF7A7FF00284E
:1044E00028DB324629462046FFF714FF08B1012099
:1044F00021E047F2305300220DF106011048006818
:1045000002F0F4F9C8B9BDF80630022B01D0012041
:1045100011E001F095FF044601F092FF001B47F205
:104520002F53984204D8FFF701FF0028F4D102E08E
:10453000012000E0012002B070BD0120FBE700BFB8
:104540007000002030B589B0134B1B7813F00104C4
:104550001DD10846154603291CD8DFE801F01902D1
:1045600009106846FFF7ECFE069B2B6020460FE023
:104570006846FFF7E5FE079B2B80204608E068466B
:10458000FFF7DEFE079B5B0A2B60204600E003205E
:1045900009B030BD0420FBE71700002000B583B050
:1045A0000223ADF8063000231A460DF10601034838
:1045B000006802F04DF903B05DF804FB70000020C4
:1045C00000B583B00123ADF8063000231A460DF183
:1045D00006010348006802F03BF903B05DF804FBF4
:1045E0007000002008B503490348FFF70BFD034B9B
:1045F000187008BD384B002094700008344B002020
:10460000002070477047FEE7FEE7FEE7FEE77047D1
:1046100008B50248FDF756F808BD00BFAC4A0020B7
:1046200008B50248FDF754F908BD00BFA46B00208F
:1046300008B50248FDF7EEFF08BD00BF7C49002029
:1046400008B50248FDF7E6FF08BD00BFE8490020B5
:1046500000B583B0002200920D4B596C41F48041AB
:104660005964596C01F48041009100990192196CD0
:1046700041F0805119641B6C03F080530193019B3E
:104680000F216FF00100FEF7C7F803B05DF804FBDF
:10469000003802402DE9F04389B0002303930493CE
:1046A00005930693079302684F4B9A4202D009B0D4
:1046B000BDE8F08304460025009503F586335A6C67
:1046C00042F400625A645A6C02F400620092009A4A
:1046D00001951A6B42F004021A631A6B02F004028D
:1046E0000192019A02951A6B42F008021A631B6B41
:1046F00003F008030293029B4FF4885303934FF097
:104700000209CDF810900595032606964FF00C0887
:10471000CDF81C800DEB08013448FDF757FD042748
:104720000397CDF8109005950696CDF81C800DEBFB
:1047300008012F48FDF74AFD2E482F4B03604FF02C
:10474000006343608560C5604FF4806303614FF48C
:10475000805343614FF4804383612023C36105622A
:10476000476286624FF40003C3624FF40013036391
:10477000FDF7A2FE002831D11E4B23649C631F4825
:104780001F4B03604FF000634360402383600023AE
:10479000C3604FF4806202614FF4805242614FF473
:1047A000804282612022C2610362042343620323A8
:1047B00083624FF40003C3624FF400130363FDF7F9
:1047C0007BFE70B90D4BE3639C6300220521312011
:1047D000FEF722F83120FEF753F868E7FFF78CFD6B
:1047E000CAE7FFF789FDEDE7002C01400008024011
:1047F000000C02407C49002058640240E849002037
:10480000A064024010B588B0014600223620FEF7B1
:1048100003F83620FEF734F800240194144B1A6C88
:1048200042F010021A641B6C03F010030193019B09
:1048300002A903A8FDF7ACFCFDF79AFC43000D4864
:10484000A0FB03239B0C013B0B480C4A026040F287
:10485000E732C260436004618460FDF75BF910B128
:10486000012008B010BD0448FDF71DF8F9E700BFAE
:104870000038024083DE1B43A46B00200010004080
:10488000054BD3F8882042F47002C3F888204FF01B
:1048900000629A60704700BF00ED00E000F108037D
:1048A00043604FF0FF328260C36003610023036006
:1048B000704700230361704743684B609A688A60C1
:1048C000516099600861036801330360704730B438
:1048D0000D68B5F1FF3F11D000F108031C465B687D
:1048E0001A68AA42FAD963684B6099608C6061606B
:1048F000086103680133036030BC70470469F2E764
:104900000369416882688A60416851605A688242DE
:1049100006D0002202611A68013A1A6018687047CE
:1049200082685A60F5E70346406A18B11B6B186845
:10493000C0F13800704710B5044602F0B3F9A26B1D
:10494000E36B9A4204D0002402F0CEF9204610BD59
:104950000124F9E710B5044602F0A4F9A36B23B9CA
:10496000012402F0C1F9204610BD0024F9E770B51A
:1049700004461546866B026C5AB903681BB10020C9
:104980000136A66370BD806801F034FA0023A3608D
:10499000F6E76DB94068FBF763FC226C636813446B
:1049A0006360A268934219D3236863602846E7E7EF
:1049B000C068FBF755FC226C5142E3689B1AE36028
:1049C0002268934202D2A3680B44E360022D01D017
:1049D0000020D5E726B1013E0020D1E72846CFE7E9
:1049E0000020CDE70346026C6AB110B50846D968CD
:1049F0001144D9609C68A14201D31968D960D96873
:104A0000FBF72EFC10BD704738B5054602F04AF999
:104A100095F8454064B203E001F08AF9013C64B2C4
:104A2000002C08DD6B6A33B105F1240001F0ECF8CD
:104A30000028F3D0F0E7FF2385F8453002F054F961
:104A400002F030F995F8444064B203E001F070F9E7
:104A5000013C64B2002C08DD2B6933B105F1100074
:104A600001F0D2F80028F3D0F0E7FF2385F84430B6
:104A700002F03AF938BD000038B5E0B10D46044601
:104A800002F010F92168E26B236C03FB0210A060B6
:104A90000020A0636160013A02FB0313E360FF237F
:104AA00084F8443084F84530EDB9236963B902F0E5
:104AB0001BF9012038BD4FF0500383F31188BFF379
:104AC0006F8FBFF34F8FFEE704F1100001F09CF8E9
:104AD0000028ECD0084B4FF080521A60BFF34F8F84
:104AE000BFF36F8FE3E704F11000FFF7D7FE04F187
:104AF0002400FFF7D3FEDAE704ED00E038B51D46E9
:104B0000049C0B4649B92460E063236401212046DC
:104B1000FFF7B2FF84F84C5038BD2260F4E740B98B
:104B20004FF0500383F31188BFF36F8FBFF34F8FA4
:104B3000FEE730B585B01C46054653B192B189B940
:104B40004FF0500383F31188BFF36F8FBFF34F8F84
:104B5000FEE74FF0500383F31188BFF36F8FBFF36D
:104B60004F8FFEE76AB150230393039B502B13D062
:104B70004FF0500383F31188BFF36F8FBFF34F8F54
:104B8000FEE70029EFD04FF0500383F31188BFF305
:104B90006F8FBFF34F8FFEE7039B012384F84630EE
:104BA00000949DF820302846FFF7A8FF204605B066
:104BB00030BD40B94FF0500383F31188BFF36F8FBE
:104BC000BFF34F8FFEE7F0B583B00C46164607469D
:104BD000A1B101FB00F0503001F04CFF054650B18F
:104BE000002380F846300090334600F15002214601
:104BF0003846FFF783FF284603B0F0BD0846EAE7D2
:104C000030B583B040B94FF0500383F31188BFF340
:104C10006F8FBFF34F8FFEE70C461346884208D2D2
:104C20004FF0500383F31188BFF36F8FBFF34F8FA3
:104C3000FEE70222009200221146FFF770FF0346B2
:104C400000B18463184603B030BD40B94FF0500343
:104C500083F31188BFF36F8FBFF34F8FFEE710B55B
:104C60000C46884208D24FF0500383F31188BFF3FB
:104C70006F8FBFF34F8FFEE702220021FFF799FFEE
:104C8000034600B18463184610BD0000F0B585B03E
:104C9000019288B10E461D460446B1B1022D20D1C5
:104CA000E36B012B1DD04FF0500383F31188BFF34A
:104CB0006F8FBFF34F8FFEE74FF0500383F31188E0
:104CC000BFF36F8FBFF34F8FFEE7036C002BE5D070
:104CD0004FF0500383F31188BFF36F8FBFF34F8FF3
:104CE000FEE701F02BF8074658B9019B002B44D092
:104CF0004FF0500383F31188BFF36F8FBFF34F8FD3
:104D0000FEE7002739E02A4631462046FFF72FFE0E
:104D1000626A6AB938B13C4B4FF080521A60BFF3F7
:104D20004F8FBFF36F8F01F0DFFF012005B0F0BDA3
:104D300004F1240000F068FF0028F4D0324B4FF05B
:104D400080521A60BFF34F8FBFF36F8FEBE701F014
:104D5000CBFF0020EAE702A800F09CFF012719E042
:104D6000002384F8443021E0002384F8453023E018
:104D70002046FFF749FE00F025FE01F093FFA26BED
:104D8000E36B9A42BFD3022DBDD0019B002BDED036
:104D9000002FE0D001F0A8FF00F072FD01F082FFCB
:104DA00094F844305BB2B3F1FF3FD9D094F845306A
:104DB0005BB2B3F1FF3FD7D001F096FF01A902A883
:104DC00000F074FFC8B92046FFF7B5FD0028CFD02A
:104DD000019904F1100000F0E3FE2046FFF714FEF5
:104DE00000F0F0FD0028C8D1074B4FF080521A6048
:104DF000BFF34F8FBFF36F8FBFE72046FFF704FE6F
:104E000000F0E0FD002091E704ED00E02DE9F8431B
:104E100090B1894690461F460446B1B1022F20D179
:104E2000E36B012B1DD04FF0500383F31188BFF3C8
:104E30006F8FBFF34F8FFEE74FF0500383F311885E
:104E4000BFF36F8FBFF34F8FFEE7036C002BE5D0EE
:104E50004FF0500383F31188BFF36F8FBFF34F8F71
:104E6000FEE702F049F8EFF311864FF0500383F3A9
:104E70001188BFF36F8FBFF34F8FA26BE36B9A4222
:104E800006D3022F04D0002086F31188BDE8F883F2
:104E900094F845506DB23A4649462046FFF767FD03
:104EA000B5F1FF3F05D06B1C5BB284F845300120A3
:104EB000EAE7636A0BB90120E6E704F1240000F099
:104EC000A3FE30B1B8F1000F05D00120C8F80000F2
:104ED000DAE70120D8E70120D6E768B170B50E46C1
:104EE0000446036C8BB14FF0500383F31188BFF37A
:104EF0006F8FBFF34F8FFEE74FF0500383F311889E
:104F0000BFF36F8FBFF34F8FFEE70368EBB101F084
:104F1000F3FFEFF311854FF0500383F31188BFF3D4
:104F20006F8FBFF34F8FA26BE36B934226D994F838
:104F300045305BB20132A263B3F1FF3F11D00133C0
:104F40005BB284F84530012019E08368002BDED085
:104F50004FF0500383F31188BFF36F8FBFF34F8F70
:104F6000FEE7636A0BB9012009E004F1240000F0B8
:104F70004BFE38B146B10120306000E0002085F3DF
:104F8000118870BD0120FAE70120F8E7F0B585B07F
:104F9000019290B10E460446C1B100F0CFFE074623
:104FA00000BB019B002B5CD04FF0500383F31188B2
:104FB000BFF36F8FBFF34F8FFEE74FF0500383F3C4
:104FC0001188BFF36F8FBFF34F8FFEE7036C002B89
:104FD000E3D04FF0500383F31188BFF36F8FBFF31B
:104FE0004F8FFEE700273CE031462046FFF7FAFCF2
:104FF000013DA563236923B901F076FE012005B0C8
:10500000F0BD04F1100000F0FFFD0028F4D0354B96
:105010004FF080521A60BFF34F8FBFF36F8FEBE7F3
:1050200001F062FE0020EAE702A800F033FE01274B
:1050300021E0002384F8443029E0002384F845303F
:105040002BE02046FFF7E0FC00F0BCFC09E0204626
:10505000FFF7DAFC00F0B6FC2046FFF77BFC0028E7
:105060003DD101F01FFEA56B002DBDD1019B002B92
:10507000D6D0002FD8D001F037FE00F001FC01F0AF
:1050800011FE94F844305BB2B3F1FF3FD1D094F8F5
:1050900045305BB2B3F1FF3FCFD001F025FE01A94F
:1050A00002A800F003FE0028D1D12046FFF752FCF1
:1050B0000028C6D0019904F1240000F071FD2046BB
:1050C000FFF7A2FC00F07EFC0028CAD1054B4FF090
:1050D00080521A60BFF34F8FBFF36F8FC1E700207C
:1050E0008DE700BF04ED00E070B584B0019158B1C8
:1050F0000446036C8BB14FF0500383F31188BFF368
:105100006F8FBFF34F8FFEE74FF0500383F311888B
:10511000BFF36F8FBFF34F8FFEE700F00FFE064621
:1051200050B9019B5BB14FF0500383F31188BFF37B
:105130006F8FBFF34F8FFEE700252E4653E00546E5
:1051400051E0013BA36323683BB123694BB901F0F4
:10515000CBFD0125284604B070BD00F0E5FEA0603F
:10516000F3E704F1100000F04FFD0028EFD0464BAC
:105170004FF080521A60BFF34F8FBFF36F8FE6E797
:1051800045B14FF0500383F31188BFF36F8FBFF326
:105190004F8FFEE701F0A8FDDCE702A800F07AFDE2
:1051A00001262AE0002384F8443032E0002384F80A
:1051B000453034E001F076FDA06800F0CFFD0546F3
:1051C00001F092FD3BE02046FFF71EFC00F0FAFBE9
:1051D00009E02046FFF718FC00F0F4FB2046FFF73B
:1051E000B9FB002840D101F05DFDA36B002BA8D1D5
:1051F000019B002BC4D0002ECFD001F075FD00F034
:105200003FFB01F04FFD94F844305BB2B3F1FF3F38
:10521000C8D094F845305BB2B3F1FF3FC6D001F07F
:1052200063FD01A902A800F041FD0028D1D120466C
:10523000FFF790FB0028C6D02368002BBAD0019955
:1052400004F1240000F0ACFC2046FFF7DDFB00F089
:10525000B9FB0028C7D10C4B4FF080521A60BFF346
:105260004F8FBFF36F8FBEE70DB9002572E701F0D6
:1052700019FD2046FFF757FB0146A06800F002FE2B
:1052800001F032FDF1E700BF04ED00E02DE9F84345
:10529000C8B1894617460446F1B101F02DFEEFF37F
:1052A00011864FF0500383F31188BFF36F8FBFF364
:1052B0004F8FD4F83880B8F1000F19D1002086F351
:1052C0001188BDE8F8834FF0500383F31188BFF3D2
:1052D0006F8FBFF34F8FFEE7036C002BDDD04FF0D5
:1052E000500383F31188BFF36F8FBFF34F8FFEE737
:1052F00094F844506DB249462046FFF773FB08F11D
:10530000FF33A363B5F1FF3F05D06B1C5BB284F89C
:1053100044300120D3E723690BB90120CFE704F122
:10532000100000F071FC18B127B101203860C6E709
:105330000120C4E70120C2E7002300E00133072B6E
:105340000BD8064A52F83320002AF7D1034A42F814
:10535000331002EBC303586070477047E46B0020C2
:10536000002300E00133072B0DD8074A02EBC302EC
:1053700052688242F6D1044A002142F8331002EB0F
:10538000C303596070477047E46B002038B110B513
:105390000446FFF7E5FF94F846304BB110BD4FF0DF
:1053A000500383F31188BFF36F8FBFF34F8FFEE776
:1053B000204601F0D7FBF1E770B504460D461646CE
:1053C00001F070FC94F844305BB2B3F1FF3F0DD0B4
:1053D00094F845305BB2B3F1FF3F0BD001F084FC91
:1053E000A36B5BB12046FFF70FFB70BD002384F871
:1053F0004430EDE7002384F84530EFE73246294694
:1054000004F1240000F0E4FBECE70000084B1B680B
:105410001B6823B9074B4FF0FF321A607047044BEB
:105420001B68DB68DB685A68024B1A60704700BF74
:1054300078000020200500202DE9F04780460D4629
:1054400017469946089EDDF824A00A9C9200A521E3
:10545000206BFAF79FFF236B07F18042013A03EBC1
:10546000820727F0070785B300220F2A07D8A95C17
:10547000A31883F83410AB5C0BB10132F5E70023BD
:1054800084F84330372E00D93726E662E6640025DB
:105490002565201DFFF70DFA04F11800FFF709FA42
:1054A0002461C6F13806A6616462656584F85850C7
:1054B0004A464146384601F0CBFB2060BAF1000F66
:1054C00001D0CAF80040BDE8F087002384F83430EA
:1054D000D8E7000038B50024372C08D804EB840244
:1054E00093000E481844FFF7D9F90134F4E70C4D46
:1054F0002846FFF7D3F90B4C2046FFF7CFF90A48AF
:10550000FFF7CCF90948FFF7C9F90948FFF7C6F9D1
:10551000084B1D60084B1C6038BD00BF8000002098
:10552000F80400200C050020280500205405002068
:1055300040050020780000207C00002010B50446C3
:1055400001F0B0FB214A136801331360204B1B6844
:105550005BB1204B1B686BB91D4B1B68DA6AE36AB1
:105560009A4207D81A4B1C6004E0194B1C60136860
:10557000012B27D0184A1368013313606364E06A73
:10558000164B1B68984201D9144B186000EB800041
:10559000211D134B03EB8000FFF78EF901F0A4FBF4
:1055A0000C4B1B686BB10A4B1B68DA6AE36A9A42C0
:1055B00007D20C4B4FF080521A60BFF34F8FBFF3EE
:1055C0006F8F10BDFFF786FFD4E700BFE004002017
:1055D000740000203C050020F0040020F4040020AA
:1055E0008000002004ED00E010B5044690F859302A
:1055F00063B1012B11D0022B0ED04FF0500383F377
:105600001188BFF36F8FBFF34F8FFEE7006B01F080
:10561000A9FA204601F0A6FA10BD01F0A3FAFBE7B3
:105620000F4B1B68D3B110B501F03CFB0D4BDB6891
:10563000DC68201DFFF764F90B4A1368013B136017
:10564000074A1368013B136001F04EFB2046FFF749
:10565000CBFF034B1B68002BE6D110BD704700BF8A
:10566000E404002054050020E004002008B5FFF702
:10567000D7FF064B1B68012BF9D9054B4FF0805221
:105680001A60BFF34F8FBFF36F8FF0E780000020E9
:1056900004ED00E070B504460D46174B1E68174B2D
:1056A00018680430FFF72CF9B4F1FF3F0DD03444F3
:1056B000124B1B685C60A64210D9114B18680F4B47
:1056C00019680431FFF703F970BD002DEFD00B4BC3
:1056D000196804310B48FFF7EFF8F5E70A4B186833
:1056E000064B19680431FFF7F2F8084B1B68A34218
:1056F000EAD9064B1C60E7E768050020740000202B
:105700007C000020400500207800002020050020BB
:1057100070B586B00B9D0C9C75B1B4B15C26049637
:10572000049E5C2E1AD04FF0500383F31188BFF310
:105730006F8FBFF34F8FFEE74FF0500383F3118855
:10574000BFF36F8FBFF34F8FFEE74FF0500383F32C
:105750001188BFF36F8FBFF34F8FFEE7049E256361
:10576000022584F8595000250395029405AD019552
:105770000A9D0095FFF760FE2046FFF7DFFE0598C3
:1057800006B070BD2DE9F04385B007468846144643
:105790001E46900001F06EF900B381465C2001F0D6
:1057A00069F90546B0B1C0F83090E5B1002385F83D
:1057B0005930039302950D9B01930C9B0093334644
:1057C000224641463846FFF737FE2846FFF7B6FE29
:1057D000012005E0484601F0C5F9E6E74FF0FF304B
:1057E00005B0BDE8F0834FF0FF30F9E710B588B0A1
:1057F00000240594069407AA06A905A801F0C4F898
:10580000059B0293069B019300942346079A174930
:105810001748FFF77DFF48B100F000FC0346012B5D
:1058200006D0B3F1FF3F18D008B010BD0023F6E753
:105830004FF0500383F31188BFF36F8FBFF34F8F87
:105840000C4B4FF0FF321A600B4B01221A600B4BCE
:1058500000221A6001F0C8FAE6E74FF0500383F324
:105860001188BFF36F8FBFF34F8FFEE7C070000842
:105870006D560008200500203C050020680500202A
:10588000024A136801331360704700BFEC04002024
:10589000014B1868704700BF6805002008B501F08B
:1058A0002BFB014B186808BD68050020F8B53A4B82
:1058B0001B68002B65D1394B1D6801351D60C5B9CA
:1058C000374B1B681B6843B14FF0500383F31188BB
:1058D000BFF36F8FBFF34F8FFEE7314A1168314B33
:1058E000186810601960304A136801331360FFF7BD
:1058F0008DFD2E4B1B68AB420CD900242C4B1B6832
:10590000DB6A03EB83039A002A4B9B58012B3DD99A
:1059100001243BE0002416E0244B4FF0FF321A60D4
:10592000ECE7224A1360E9E703EB83039A00394668
:1059300020481044FEF7C0FFF26A1D4B1B68DB6A6B
:105940009A4200D30124164B1B681B68002BE3D03E
:10595000134B1B68DB68DE6873689D42E1D3371D1B
:105960003846FEF7CDFFB36A1BB106F11800FEF70B
:10597000C7FFF36A104A12689342D5D90E4A1360E2
:10598000D2E70E4A13680133136000240C4B1B68E6
:1059900003B101242046F8BDEC0400206805002076
:1059A000780000207C000020240500202005002035
:1059B0007400002080000020F4040020E80400208F
:1059C0006C05002038B5344B1B6843B94FF05003C9
:1059D00083F31188BFF36F8FBFF34F8FFEE701F0A2
:1059E00061F92D4B1A68013A1A601B68002B4DD1E2
:1059F0002A4B1B680BB9002449E00024284B1B6884
:105A00001BB3274BDB68DC6804F11800FEF778FF56
:105A1000251D2846FEF774FFE06A224B1B6898425A
:105A200001D9204B186000EB800029461E4B03EB88
:105A30008000FEF741FFE26A1C4B1B68DB6A9A425A
:105A4000DCD31B4B01221A60D8E70CB1FFF7DEFC58
:105A5000184B1C6874B9164B1C68C4B1164B4FF038
:105A600080521A60BFF34F8FBFF36F8F01240EE097
:105A7000013C07D0FFF71AFF0028F9D00C4B012298
:105A80001A60F5E70B4B00221A60E4E7002401F0EE
:105A90002BF9204638BD00BFEC040020E0040020B4
:105AA00028050020F404002080000020740000205D
:105AB0006C050020E804002004ED00E010B5A8B15A
:105AC00004460F4B1B6843B14FF0500383F311881A
:105AD000BFF36F8FBFF34F8FFEE7FFF7D1FE0021BB
