:020000040800F2
:1000000000000220D12F00088108000883080008A2
:10001000850800088708000889080008000000001B
:100020000000000000000000000000002130000877
:100030008B08000800000000213000088D0800082F
:10004000213000082130000821300008213000084C
:10005000213000082130000821300008213000083C
:10006000213000082130000821300008213000082C
:10007000213000082130000821300008213000081C
:10008000213000082130000821300008213000080C
:1000900021300008213000082130000821300008FC
:1000A00021300008213000082130000821300008EC
:1000B00021300008213000082130000821300008DC
:1000C00021300008213000082130000821300008CC
:1000D00021300008213000082130000821300008BC
:1000E00021300008213000082130000821300008AC
:1000F000213000082130000821300008213000089C
:10010000213000089508000821300008213000083F
:10011000213000082130000821300008213000087B
:10012000213000082130000821300008213000086B
:10013000213000082130000821300008213000085B
:10014000213000082130000821300008213000084B
:10015000213000082130000821300008213000083B
:10016000213000082130000821300008213000082B
:100170002130000821300008213000080000000074
:080180002130000821300008C5
:100188000348044B834202D0034B03B1184770471E
:100198000C0000200C000020000000000548064963
:1001A8000B1AD90F01EBA301491002D0034B03B17D
:1001B800184770470C0000200C00002000000000C9
:1001C80010B5064C237843B9FFF7DAFF044B13B197
:1001D8000448AFF300800123237010BD0C000020F9
:1001E800000000002430000808B5044B1BB1044986
:1001F8000448AFF30080BDE80840CFE700000000E6
:10020800100000202430000870B50D4E0D4D761BEF
:10021800B61006D00024013455F8043B9847A6428E
:10022800F9D1094E094D761B02F0F8FEB61006D03A
:100238000024013455F8043B9847A642F9D170BD13
:100248007030000870300008743000087030000802
:10025800F0B4860746D0541E002A3CD0CAB20346E2
:1002680002E014F1FF3436D303F8012B9D07F8D1CF
:10027800032C29D9CDB245EA05250F2C45EA0545B9
:1002880033D9A4F11006360903F1200707EB061746
:1002980003F1100242E9045542E902551032BA420C
:1002A800F8D1721C14F00C0F03EB021204F00F06C5
:1002B80013D0331F23F003030433134442F8045BC1
:1002C8009342FBD106F003042CB1C9B21C4403F8D5
:1002D800011B9C42FBD1F0BC704734461346002CEE
:1002E800F3D1F8E714460346C2E71A462646E0E784
:1002F80053B94AB9002908BF00281CBF4FF0FF3185
:100308004FF0FF3000F06EB9ADF1080C6DE904CE86
:1003180000F006F8DDF804E0DDE9022304B07047D8
:100328002DE9F047089D04468C46002B40F0838059
:100338008A42174647D9B2FA82F242B1C2F1200086
:1003480024FA00F09140974040EA010C94404FEAAB
:100358001748230CBCFBF8F61FFA87FE08FB16C1EA
:1003680043EA014306FB0EF1994209D9FB1806F14D
:10037800FF3080F01981994240F21681023E3B44D9
:100388005B1AA4B2B3FBF8F008FB103344EA034449
:1003980000FB0EFEA64509D93C1900F1FF3380F099
:1003A8000581A64540F2028102383C4440EA0640F5
:1003B800A4EB0E0400261DB1D4400023C5E9004378
:1003C8003146BDE8F08702B9FFDEB2FA82F2002AB0
:1003D80050D1CB1B4FEA174E1FFA87F80126B3FB03
:1003E800FEFC210C0EFB1C3341EA034108FB0CF315
:1003F8008B4207D979180CF1FF3002D28B4200F2F8
:10040800E9808446C91AA3B2B1FBFEF00EFB1011B5
:1004180043EA014408FB00F8A04507D93C1900F15C
:10042800FF3302D2A04500F2D9801846A4EB080495
:1004380040EA0C40BFE78B4209D9002D00F0B1809B
:100448000026C5E9000130463146BDE8F087B3FA19
:1004580083F6002E4AD18B4202D3824200F2B88042
:10046800841A61EB030101208C46002DA8D0C5E950
:10047800004CA5E7C2F1200320FA03F6974001FAE1
:1004880002F04FEA174ED9403043030CB1FBFEF699
:100498001FFA87F80EFB161143EA014306FB08F121
:1004A800994204FA02F409D9FB1806F1FF3C80F0DE
:1004B8008D80994240F28A80023E3B445B1A81B2A9
:1004C800B3FBFEF00EFB103341EA034100FB08F3D7
:1004D8008B4207D9791800F1FF3C73D28B4271D94E
:1004E80002383944CB1A40EA064678E7C6F1200CB0
:1004F80003FA06F422FA0CF31C4320FA0CF701FA6B
:1005080006F34FEA144E21FA0CF11F433B0CB1FBE2
:10051800FEF91FFA84F80EFB191143EA014109FBA1
:1005280008FA8A4502FA06F200FA06F308D96118B1
:1005380009F1FF3048D28A4546D9A9F10209214478
:10054800A1EB0A01BFB2B1FBFEF00EFB101147EAA6
:10055800014700FB08F8B84507D9E71900F1FF3152
:100568002ED2B8452CD90238274440EA0940A7EBD7
:100578000807A0FB02894F45C64649461AD317D03B
:100588005DB1B3EB0E0267EB010707FA0CFCF24012
:100598004CEA0202F740C5E9002700263146BDE8CB
:1005A800F0872E4628460BE70646E9E61846FDE69C
:1005B8004345E5D2B8EB020E69EB04010138DFE7E9
:1005C8000846D2E760468DE78146B9E7664675E793
:1005D80030464AE7ACF1020C394413E702383C4490
:1005E80024E700BF704700BF064B074A1A60002285
:1005F8005A604FF480619960DA601A615A619A61B1
:10060800704700BFF4000020002C014070B58AB08C
:1006180000240594069407940894099400942A4B9E
:100628001A6B42F080021A631A6B02F08002009281
:10063800009A01941A6B42F001021A631A6B02F0D5
:1006480001020192019A02941A6B42F008021A639D
:100658001A6B02F008020292029A03941A6B42F093
:1006680004021A631A6B02F004020392039A0494B8
:100678001A6B42F002021A631B6B03F00203049325
:10068800049B124D22464FF47041284602F035FA79
:10069800012605960694079405A90D4802F040F92D
:1006A8004FF47043059306960794089405A92846C5
:1006B80002F036F9082305930694079405A92846FD
:1006C80002F02EF90AB070BD00380240000C02405A
:1006D8000000024008B50848084B03604FF4E133B6
:1006E800436000238360C36003610C22426183611D
:1006F800C36102F039FC08BD7400002000100140FD
:1007080008B50748074B036000234360836040F245
:100718007172C26003618023836101F0B5FD08BD79
:10072800B40000200048014008B50748074B0360A3
:1007380000234360836040F2D562C2600361802376
:10074800836101F0A1FD08BD780100200020004070
:1007580008B50648064B03600023436083605322B4
:10076800C2600361836101F08FFD08BD3400002081
:10077800001C004030B595B03022002108A8FFF7D2
:1007880067FD002403940494059406940794019447
:100798001B4B1A6C42F080521A641B6C03F0805396
:1007A8000193019B0294174B1A6842F480421A6025
:1007B8001B6803F480430293029B012308934FF4C0
:1007C8008033099302250E954FF480030F93042379
:1007D8001093A823119312950723139308A801F0E7
:1007E8006DFD0F230393049505944FF4A0530693CE
:1007F8000793052103A801F0BDFF15B030BD00BF68
:10080800003802400070004008B502F029FAFFF7EE
:10081800B1FFFFF7FBFEFFF7E7FEFFF75BFF00F016
:1008280019FAFFF76DFFFFF77FFFFFF791FF114CF4
:100838004FF48051204602F066F9FA2002F03CFAA3
:100848004FF40051204602F05EF9FA2002F034FA23
:100858004FF48041204602F056F9FA2002F02CFAB3
:100868004FF40041204602F04EF9FA2002F024FA33
:10087800DDE700BF000C02407047FEE7FEE7FEE739
:10088800FEE7704708B502F005FA08BD08B502484A
:1008980001F0A6FB08BD00BFF400002082B00021D3
:1008A80000910B4B5A6C42F480425A645A6C02F421
:1008B80080420092009A01911A6C42F080521A64A8
:1008C8001B6C03F080530193019B02B0704700BF7B
:1008D80000380240F0B589B00023039304930593D0
:1008E800069307930268244B9A4201D009B0F0BDE1
:1008F8000024009403F586335A6C42F400625A646B
:100908005A6C02F400620092009A01941A6B42F049
:1009180004021A631A6B02F004020192019A02940B
:100928001A6B42F008021A631B6B03F00803029368
:10093800029B4FF4F8530393022704970594032668
:1009480006960C2507950DEB05010C4801F0E8FF0C
:100958000423039304970594069607950DEB050168
:10096800074801F0DDFF22462146312002F0FAF85F
:10097800312002F02BF9B9E7002C014000080240B1
:10098800000C024084B00368184A934207D0184A02
:10099800934211D0174A93421BD004B070470023EA
:1009A8000193154B5A6C42F480225A645B6C03F431
:1009B80080230193019BF0E7002302930E4B1A6CEE
:1009C80042F080021A641B6C03F080030293029BBE
:1009D800E3E700230393084B1A6C42F480721A640D
:1009E8001B6C03F480730393039BD6E70048014014
:1009F800001C0040002000400038024000B589B0CB
:100A0800002303930493059306930793026803F165
:100A1800804303F588339A4202D009B05DF804FB9D
:100A28000022019203F59433596C41F01001596486
:100A3800596C01F01001019101990292196B41F072
:100A4800010119631B6B03F001030293029B4FF42E
:100A5800C063039302230493059203230693072399
:100A6800079303A9014801F05BFFD6E700000240A5
:100A780000B583B0009313460A460146034800F0C8
:100A8800FDFD00B1012003B05DF804FBF400002077
:100A980000B583B0009313460A460146034800F0A8
:100AA80021FF00B1012003B05DF804FBF400002031
:100AB80008B5034801F03EFA043818BF012008BD04
:100AC800F400002008B50146014801F0CEF908BD40
:100AD800F4000020704708B5FFF7FCFF08BD704719
:100AE80008B5FFF7FCFF08BD704708B5FFF7FCFF26
:100AF80008BD00B583B001238DF8073000F09EF8DB
:100B080010B900238DF807309DF8070003B05DF891
:100B180004FB000038B5FFF7ECFF012802D00125DF
:100B2800284638BD0446074801F084F905460028E0
:100B3800F6D14FF40061034801F0AAF90028EFD07C
:100B48002546EDE7F400002008B5074B01221A708E
:100B5800FFF7AEFF20B9044A137803F0FE031370C1
:100B6800014B187808BD00BF0000002010B50446EE
:100B7800074B01221A70FFF7CDFF10B1044B18780C
:100B880010BD2046FFF7E0FF014B1870F6E700BFE5
:100B98000000002008B5FFF7D7FF08BD08B50846D4
:100BA80011461A464FF0FF33FFF762FF30B9FFF7DF
:100BB8007FFF03460028FAD1184608BD0123FBE74A
:100BC80008B5084611461A464FF0FF33FFF760FF95
:100BD80030B9FFF76DFF03460028FAD1184608BD63
:100BE8000123FBE730B589B0134B1B7813F00104E0
:100BF8001DD10846154603291CD8DFE801F0190263
:100C080009106846FFF75EFF069B2B6020460FE041
:100C18006846FFF757FF079B2B80204608E0684689
:100C2800FFF750FF079B5B0A2B60204600E003207C
:100C380009B030BD0420FBE70000002008B50821FA
:100C4800034801F053FF08B9012008BD0020FCE764
:100C5800000C024008B50349034802F08BF8034B27
:100C6800187008BDBC0100203C300008B801002005
:100C78000B4B1B680B4AA2FB03235A0A41F2883329
:100C880003FB02F31A46013B3AB1426B12F0800FA4
:100C9800F8D0C5238363002070474FF000407047A9
:100CA80008000020D34D62100146144B1B68144AFB
:100CB800A2FB03235A0A41F2883303FB02F31A46C4
:100CC800013BBAB14A6B12F0450FF8D012F4006F2D
:100CD800F5D14B6B13F0040F06D1486B10F00100EF
:100CE80005D1C5238B6370470420886370470120B2
:100CF800886370474FF00040704700BF080000202D
:100D0800D34D62100146104B1B68104AA2FB032307
:100D18005A0A41F2883303FB02F31A46013B82B1B7
:100D28004A6B12F0450FF8D012F4006FF5D1486BFA
:100D380010F0040002D1C5238B6370470420886338
:100D480070474FF00040704708000020D34D6210F4
:100D58000146164B1B68164AA2FB03235A0A41F2A6
:100D6800883303FB02F31A46013BE2B14A6B12F0E7
:100D7800450FF8D012F4006FF5D14B6B13F0040F48
:100D88000BD14B6B13F001030AD1486B10F04000F4
:100D98000BD040228A631846704704208863704746
:100DA8000120886370474FF000407047080000201A
:100DB800D34D621084B010B402AC84E80E000B4628
:100DC800039A1343049A1343059A1343069A134349
:100DD800079A1343426822F4FD4222F07F0213432C
:100DE800436000205DF8044B04B07047D0F88000E1
:100DF80070470B68C0F880300020704708B503239F
:100E08000360022001F058FF002008BD006800F0D0
:100E1800030070470B6883604B688A681343CA688D
:100E280013430A691343C26822F47F6222F00F0257
:100E38001343C360002070470069C0B27047143084
:100E48004058704738B504460D46504B1B6850490A
:100E5800A1FB03135B0A02FB03F21346013A002BC2
:100E68005DD0636B13F0450FF7D013F4006FF4D126
:100E7800636B13F0040F06D1636B13F0010F05D0F9
:100E88000120A0634DE00420A0634AE0C523A363CA
:100E98002046FFF7D1FFA84201D0012041E0002100
:100EA8002046FFF7CCFF03463A481840C8B3002B4A
:100EB80038DB13F0804F38D113F0005F37D113F0CF
:100EC800805F36D113F0006F36D113F0806F36D1C2
:100ED80013F0807F36D113F4000F36D113F4800F4E
:100EE80036D113F4001F36D113F4801F36D113F412
:100EF800802F36D113F4003F36D113F4803F36D11A
:100F080013F4004F36D113F4804F36D113F4005F39
:100F180036D113F0080F36D04FF4000001E04FF03F
:100F2800004038BD4FF00070FBE74020F9E7802013
:100F3800F7E74FF48070F4E74FF40070F1E74FF4EF
:100F48008060EEE74FF40060EBE74FF48050E8E78D
:100F58004FF40050E5E74FF48040E2E74FF40040DB
:100F6800DFE74FF40030DCE74FF48020D9E74FF497
:100F78000020D6E74FF48010D3E74FF40010D0E7F5
:100F88004FF48000CDE74FF48030CAE70800002016
:100F9800D34D621008E0FFFDF8B505460E4617462A
:100FA800234B1B682348A0FB0323580A41F28833CC
:100FB80003FB00F31C46013B8CB36C6B14F0450F2C
:100FC800F8D014F4006FF5D16B6B13F0040F06D151
:100FD8006B6B13F0010F05D00120A86321E00420FA
:100FE800A8631EE02846FFF727FFB04201D0012082
:100FF80017E0C523AB6300212846FFF720FF03460F
:1010080010F4604008D013F4804F0BD113F4004F54
:101018000BD04FF4805004E01B0C3B8001E04FF0F4
:101028000040F8BD4FF40050FBE74FF48030F8E77C
:1010380008000020D34D62100B6843624B6883623E
:101048008B68CA6813430A6913434A691343C26A1F
:1010580022F0F7021343C3620020704730B587B00F
:10106800044601911025029540230393002304931D
:101078004FF48063059301A9FFF7CCFE41F2883253
:1010880029462046FFF7DEFE07B030BD30B587B0F1
:1010980004460191112502954023039300230493EC
:1010A8004FF48063059301A9FFF7B4FE41F288323B
:1010B80029462046FFF7C6FE07B030BD30B587B0D9
:1010C80004460191122502954023039300230493BB
:1010D8004FF48063059301A9FFF79CFE41F2883223
:1010E80029462046FFF7AEFE07B030BD30B587B0C1
:1010F8000446019118250295402303930023049385
:101108004FF48063059301A9FFF784FE41F288320A
:1011180029462046FFF796FE07B030BD30B587B0A8
:101128000446019119250295402303930023049353
:101138004FF48063059301A9FFF76CFE41F28832F2
:1011480029462046FFF77EFE07B030BD30B587B090
:101158000446002301930C25029540220392049330
:101168004FF48063059301A9FFF754FE034A29460B
:101178002046FFF767FE07B030BD00BF00E1F50568
:1011880030B587B0044601920725029540230393A2
:10119800002304934FF48063059301A9FFF73AFEF7
:1011A80041F2883229462046FFF74CFE07B030BD91
:1011B80010B586B004460023019302930393049369
:1011C8004FF48063059301A9FFF724FE2046FFF73B
:1011D8004FFD06B010BD10B586B004464FF4D57368
:1011E80001930823029340230393002304934FF4AD
:1011F8008063059301A9FFF70DFE2046FFF7A8FDC0
:1012080006B010BD30B587B0044601913725029568
:1012180040230393002304934FF48063059301A9AB
:10122800FFF7F8FD41F2883229462046FFF70AFE0B
:1012380007B030BD10B586B0044641F0004141F416
:1012480080110191292302934023039300230493DF
:101258004FF48063059301A9FFF7DCFD2046FFF7F3
:1012680051FD06B010BD30B587B004460191062582
:10127800029540230393002304934FF4806305935E
:1012880001A9FFF7C7FD41F2883229462046FFF73A
:10129800D9FD07B030BD30B587B0044600230193AF
:1012A800332502954022039204934FF480630593FB
:1012B80001A9FFF7AFFD41F2883229462046FFF722
:1012C800C1FD07B030BD10B586B0044600230193B8
:1012D80002220292C022039204934FF48063059382
:1012E80001A9FFF797FD2046FFF7DEFC06B010BD09
:1012F80010B586B00446019109230293C0230393D5
:10130800002304934FF48063059301A9FFF782FD3E
:101318002046FFF7C9FC06B010BD70B586B004467C
:101328000D4600230193032602964022039204935C
:101338004FF48063059301A9FFF76CFD2A463146F7
:101348002046FFF729FE06B070BD30B587B00446C9
:1013580001910D25029540230393002304934FF434
:101368008063059301A9FFF755FD41F288322946AC
:101378002046FFF767FD07B030BD000070B582B0AA
:101388000446002301930068FFF712FF054610B1D9
:10139800284602B070BD2068FFF71DFF38B9012349
:1013A800A364A36C012B0BD02E46284614E000231F
:1013B800A3642068FFF7FCFE0028F2D00546E7E7A3
:1013C80000212068FFF71EFF0028EDD04FF0805560
:1013D800DEE7019B01330193019A4FF6FE739A42AF
:1013E80013D896B900212068FFF70CFFE0B912491D
:1013F8002068FFF71FFF0646C0B900212068FFF7E5
:101408001EFDC30FE5D01E46E3E7019A4FF6FE73B3
:101418009A420ED810F0804302D001236364B7E7E4
:10142800002262641D46B3E70546B1E74FF08055D8
:10143800AEE74FF08075ABE7000010C1F8B5846ADD
:10144800C66AAEB1074600250EE03868FFF7CEFC45
:101458002070C0F307236370C0F30743A370000E26
:10146800E0700434043E0135072DEED9BC62FE62FB
:10147800F8BDF0B583B0046A466ADEB107460025B8
:1014880014E023780193627843EA02230193A27857
:1014980043EA02430193E27843EA02630193043486
:1014A800043E01A93868FFF7A4FC0135072DE8D9E7
:1014B8003C627E6203B0F0BDF0B589B004460F46C9
:1014C80001F0F4FB064600230093019308212068ED
:1014D800FFF7C4FD054610B1284609B0F0BD216DDF
:1014E80009042068FFF78EFE05460028F4D14FF066
:1014F800FF330293082303933023049302230593B5
:10150800002306930123079302A92068FFF794FD9F
:101518002068FFF7C0FE054658B1DDE7FFF766FC17
:101528004DF82500013501F0C1FB831BB3F1FF3FE6
:101538003DD02068426B40F22A431A4204D1436BE3
:1015480013F4001FEFD0E9E7436B13F0080F25D120
:10155800436B13F0020F24D1456B15F0200523D1FE
:1015680040F23A538363019A130203F47F0343EA78
:101578000263110A01F47F410B4343EA12633B60A3
:10158800009A130203F47F0343EA0263110A01F489
:101598007F410B4343EA12637B609DE7082585631F
:1015A8009AE70225856397E72025856394E74FF03E
:1015B800004591E710B582B00446002100910191E1
:1015C8000068FFF73CFC10F0007F13D16946204605
:1015D800FFF772FF80B9019B13F4802F0ED0216DA5
:1015E80009042068FFF70EFE30B902212068FFF7D2
:1015F8003AFE01E04FF4006002B010BD4FF0806089
:10160800FAE710B582B00446002100910191006804
:10161800FFF715FC10F0007F13D169462046FFF74D
:101628004BFF80B9019B13F4803F0ED0216D090454
:101638002068FFF7E7FD30B900212068FFF713FEA7
:1016480001E04FF4006002B010BD4FF08060FAE78F
:1016580070B581B104460E46016D09040068FFF7B4
:1016680074FE054608B1284670BD00212068FFF7C2
:10167800E6FB3060F7E74FF00065F4E72DE9F04F3F
:1016880087B004460D4616469946DDF840A001F09D
:101698000DFB3DB3804694F83470FFB2012F40F043
:1016A80015810023A36306EB0903E26D93421FD85B
:1016B800032384F8343023680022DA62636C012B38
:1016C80000D076024FF400712068FFF7C7FCA0B184
:1016D800236883499963A36B0343A363012384F8B5
:1016E8003430F8E0A36B43F00063A3630127F2E012
:1016F800A36B43F00073A363EDE04FF0FF33009357
:101708004FEA492301939023029302230393002372
:1017180004930123059369462068FFF78DFCB9F10E
:10172800010F09D90223236331462068FFF7C6FC5D
:1017380048B9DDF804B02DE0012323633146206861
:10174800FFF7A4FCF4E72368654A9A63A36B184380
:10175800A063012384F8343000232363BBE02068AE
:10176800FFF744FB2870C0F307236B70C0F30743EF
:10177800AB70000EE8700435ABF1040B0136072E90
:10178800EDD901F093FAA0EB0800504510D2BAF158
:10179800000F0DD02068466B40F22A331E4015D149
:1017A800436B13F4004FECD0BBF1000FE9D0E6E730
:1017B80023684B4A9A63A36B43F00043A363012356
:1017C80084F8343000232363032784E0436B13F445
:1017D800807F05D0B9F1010F02D9636C032B38D192
:1017E80023685A6B12F0080F44D15A6B12F0020F9B
:1017F8004CD15A6B12F0200F54D12068436B13F46C
:10180800001F5BD0BBF1000F58D0FFF7EFFA28702C
:10181800C0F307236B70C0F30743AB70000EE8708A
:101828000435ABF1040B01F041FAA0EB0800504578
:1018380002D2BAF1000FE0D12368294A9A63A36B58
:1018480043F00043A363012384F834300023236367
:1018580041E0FFF77BFC03460028C1D022682049FD
:101868009163A26B1343A363012384F834300023EC
:10187800236330E01A4A9A63A36B43F00803A36317
:10188800012384F834300023236324E0144A9A6344
:10189800A36B43F00203A363012384F834300023CD
:1018A800236318E00E4A9A63A36B43F02003A363F3
:1018B800012384F83430002323630CE040F23A53C8
:1018C8008363012384F83430002704E0A36B43F0DA
:1018D8000053A3630127384607B0BDE8F08F00BF67
:1018E800FF0540002DE9F04F89B004460D46164625
:1018F800994601F0DBF93DB3804694F83470FFB2A5
:10190800012F40F0EF800023A36306EB0903E26D8B
:1019180093421FD8032384F8343023680022DA6204
:10192800636C012B00D076024FF400712068FFF73A
:1019380095FBA0B1236870499963A36B0343A36324
:10194800012384F83430D2E0A36B43F00063A3632F
:101958000127CCE0A36B43F00073A363C7E04FF00B
:10196800FF3302934FEA4923039390230493002300
:10197800059306930123079302A92068FFF75CFBF0
:10198800B9F1010F0CD92023236331462068FFF7F2
:10199800C5FB8246BAF1000F0AD1DDF80CB031E080
:1019A8001023236331462068FFF7A0FB8246F1E746
:1019B8002368514A9A63A06B40EA0A00A063012396
:1019C80084F834300023236391E02B786A7843EA63
:1019D8000223AA7843EA0243EA7843EA02630193BE
:1019E8000435ABF1040B01A92068FFF702FA0136B0
:1019F800072EEAD901F05AF9A0EB0800129B984289
:101A08000ED26BB12068466B40F21A331E4015D1D6
:101A1800436B13F4804FEDD0BBF1000FEAD0E7E73A
:101A28002368354A9A63A06B40EA0A00A063012341
:101A380084F8343000232363032758E0436B13F4FE
:101A4800807F05D0B9F1010F02D9636C032B18D13F
:101A580023685A6B12F0080F24D15A6B12F0020F48
:101A68002CD15A6B12F0100F34D0234A9A63A36B0F
:101A780043F01003A363012384F834300023236365
:101A880035E0FFF763FB03460028E1D022681A49D6
:101A98009163A26B1343A363012384F834300023BA
:101AA800236324E0144A9A63A36B43F00803A363F7
:101AB800012384F834300023236318E00E4A9A6324
:101AC800A36B43F00203A363012384F8343000239B
:101AD80023630CE040F23A529A63012384F83430CD
:101AE800002704E0A36B43F00053A36301273846A3
:101AF80009B0BDE8F08F00BFFF0540007047000047
:101B080010B4436E9B0F0B70436EC3F383634B702B
:101B180090F8673003F003038B7090F86630CB7051
:101B280090F865300B7190F864304B71836E1B0D23
:101B3800CB80B0F86A3003F00F030B72836EC3F3E7
:101B4800C0334B72836EC3F380338B72836EC3F3DF
:101B58004033CB72836EC3F300330B7300234B7394
:101B6800436C002B40F08880826E40F6FC7303EAD9
:101B78008203C26E43EA92730B61C36EC3F3C263FE
:101B88000B7590F86F3003F007034B75C36EC3F302
:101B980042538B75C36EC3F38243CB75C36EC3F3D5
:101BA800C2330B760B69013343650A7E02F00702E4
:101BB800023203FA02F242650B7A03F00F040123A2
:101BC800A34083655B0A03FB02F3C3654FF400730C
:101BD8000366C36EC3F380334B76C36EC3F3C61379
:101BE8008B76C36E03F07F03CB76036FDB0F0B7727
:101BF800036FC3F341734B77036FC3F382638B7730
:101C0800036FC3F38353CB77036FC3F3405381F858
:101C18002030002381F82130B0F8722002F0010250
:101C280081F82220026FC2F3C03281F82320026FAC
:101C3800C2F3803281F82420026FC2F3403281F867
:101C48002520026FC2F3003281F82620026FC2F30A
:101C5800812281F82720026FC2F3012281F828200F
:101C6800026FC2F3460281F82920012281F82A2056
:101C780018465DF8044B7047012B11D1836E1B0485
:101C880003F47C13B0F86E2013430B610B69013326
:101C98009B024365C3654FF400738365036698E749
:101CA8000368054A9A63836B43F080538363012377
:101CB80080F834301846DCE7FF05400070B590B076
:101CC80004460123ADF812300068FFF79FF800289A
:101CD8006CD0636C032B45D1636C032B5DD1636CB3
:101CE800032B1DD0BDF81210216509042068FFF7E9
:101CF800FFFA054600285BD100212068FFF79FF80E
:101D0800606604212068FFF79AF8A0660821206819
:101D1800FFF795F8E0660C212068FFF790F8206738
:101D280004212068FFF78BF8000DE06405A9204620
:101D3800FFF7E6FE00283ED1226D1204002320683A
:101D4800FFF71EFA054698BB234653F8106B93E835
:101D580007008DE80700043494E80E003046FFF7CA
:101D680029F825E02068FFF7AEFA054600BB0021F8
:101D78002068FFF764F8606704212068FFF75FF8C0
:101D8800A06708212068FFF75AF8E0670C2120684F
:101D9800FFF755F8C4F880009EE70DF1120120689E
:101DA800FFF7BBFA0546002899D001E04FF080659F
:101DB800284610B070BD4FF08055F9E770B58AB06D
:101DC8000446002304930593069307930893762308
:101DD80009930AAB13E907008DE8070004AB0ECBA3
:101DE8002068FEF7E7FF18B1012528460AB070BD44
:101DF80005460F4E002333602068FEF7FFFF0123DE
:101E080033602046FFF7BAFA30B1012584F8345020
:101E1800A36B0343A363E8E72046FFF74FFF0028BF
:101E2800E3D0012584F83450A36B0343A363DCE7B4
:101E3800A0802542A8B110B5044690F8343063B1AB
:101E4800032384F834302046FFF7B8FF58B9A0635D
:101E58002063012384F8343010BD0377FEF73AFD80
:101E6800EEE7012070470120F6E7436C0B60836CB6
:101E78004B60C36C8B60036DCB60436D0B61836DEE
:101E88004B61C36D8B61036ECB610020704700000E
:101E980030B58BB004460D46032380F83430436CCC
:101EA800032B1CD0B1F5805F08D0B1F5006F0AD0C4
:101EB80079B1836B43F00063836314E0836B43F071
:101EC800805383630FE0FFF775FBA36B0343A363A2
:101ED80009E0FFF796FBA36B0343A36303E0836B5F
:101EE80043F080538363A36B3BB12368104A9A6322
:101EF800012084F834000BB030BD63680493A368F4
:101F08000593E3680693079563690893A3690993A2
:101F18000AAB13E907008DE8070004AB0ECB206875
:101F2800FEF748FF012384F834300020E3E700BFC0
:101F3800FF05400010B582B004460023019301A9B3
:101F4800FFF786FB10B1A36B0343A3630198C0F3AB
:101F5800432002B010BD10B5846B236840F23A529A
:101F68009A632046FFF7E6FF012384F83430002304
:101F780023630538012805D9A36B53B92046FEF71A
:101F8800AAFD10BD2068FFF7E1F8A36B0343A36324
:101F9800F2E72046FFF7B2FDF3E710B5846B23683C
:101FA80040F23A529A632046FFF7C4FF012384F8AF
:101FB8003430002323630538012805D9A36B53B9AE
:101FC8002046FEF788FD10BD2068FFF7BFF8A36B19
:101FD8000343A363F2E72046FFF790FDF3E7000011
:101FE80038B50446056B03685A6B12F4004F02D0EB
:101FF80015F0080F28D15A6B12F4807F5AD04FF48D
:1020080080729A632268D36B23F4434323F03A0324
:10201800D3632268D36A23F00103D36215F0080F53
:1020280026D015F0220F12D1236840F23A529A6353
:10203800012384F834300023236315F0030F13D0F1
:102048002046FEF752FD01E0FFF7F8F938BD206899
:10205800FFF77CF803460028E6D0A26B1343A3637E
:102068002046FFF74BFDDFE72046FEF739FDEDE799
:1020780015F0800FEAD015F0200F0ED115F0030FE0
:10208800E4D12268D36A23F00803D362012384F8D9
:1020980034302046FEF724FDD8E72068FFF756F8CD
:1020A80003460028EAD0A26B1343A3632046FFF738
:1020B80025FDE3E75A6B12F4804F02D015F0080FA4
:1020C80055D1596B40F23A221142BFD05A6B12F0E7
:1020D800020F03D0A26B42F00202A2635A6B12F005
:1020E800080F03D0A26B42F00802A2635A6B12F0E9
:1020F800200F03D0A26B42F02002A2635A6B12F0A9
:10210800100F03D0A26B42F01002A2635A6B12F4B4
:10211800007F03D0A26B42F00802A26340F23A7239
:102128009A632268D36B23F44E7323F00203D363BC
:102138002068FFF70BF8A36B0343A36315F0080FA0
:1021480019D115F0800F81D015F0300F1CD115F082
:10215800030F26D0236C184A1A65206C00F0DCFCAB
:1021680000283FF473AF206CFFF717FF6EE7204697
:10217800FFF77FF96AE7012384F8343000232363EB
:102188002046FFF7BBFC61E7E36B0C4A1A65E06B7E
:1021980000F0C2FC00283FF459AFE06BFFF7DBFE0C
:1021A80054E70023A363012284F8342023632046E4
:1021B800FEF791FC4AE700BFA31F00085F1F000855
:1021C8000368304A904212D0B0F1804F0FD0A2F588
:1021D8007C4290420BD002F58062904207D002F513
:1021E8008062904203D002F57842904203D123F0F6
:1021F80070034A681343234A90422AD0B0F1804FB3
:1022080027D0A2F57C42904223D002F5806290420A
:102218001FD002F5806290421BD002F578429042AE
:1022280017D002F57052904213D002F580629042A6
:102238000FD002F5806290420BD0A2F598329042FE
:1022480007D002F58062904203D002F58062904286
:1022580003D123F44073CA68134323F080034A6907
:10226800134303608B68C3620B688362054B984213
:1022780003D003F58063984201D10B6903630123FE
:102288004361704700000140B0B110B5044690F8B2
:102298003D3063B1022384F83D30214651F8040BE8
:1022A800FFF78EFF012384F83D30002010BD80F831
:1022B8003C30FEF767FBEDE701207047002800F08F
:1022C800D98170B582B00446036813F0010F3BD082
:1022D800A64B9B6803F00C03042B2CD0A34B9B68E4
:1022E80003F00C03082B21D06368B3F5803F4FD06F
:1022F800B3F5A02F52D09D4B1A6822F480321A6091
:102308001A6822F480221A606368002B50D000F00B
:10231800CDFC0546954B1B6813F4003F14D100F023
:10232800C5FC401B6428F5D90320AAE18F4B5B68E4
:1023380013F4800FD8D08D4B1B6813F4003F03D0E3
:102348006368002B00F09881236813F0020F54D0C3
:10235800864B9B6813F00C0F3ED0844B9B6803F0B0
:102368000C03082B33D0E368002B67D0804B012285
:102378001A6000F09BFC05467C4B1B6813F0020FAB
:1023880053D100F093FC401B0228F5D9032078E1D3
:10239800764A136843F480331360B5E7734B1A68C1
:1023A80042F480221A601A6842F480321A60ABE75D
:1023B80000F07CFC05466D4B1B6813F4003FC3D04E
:1023C80000F074FC401B6428F5D9032059E1674BE1
:1023D8005B6813F4800FC6D1644B1B6813F0020FBF
:1023E80003D0E368012B40F04981604A136823F069
:1023F800F803216943EAC1031360236813F0080F47
:1024080040D0636963B35B4B01221A6000F04EFC55
:102418000546564B5B6F13F0020F33D100F046FCB4
:10242800401B0228F5D903202BE1504A136823F0FA
:10243800F803216943EAC1031360DEE74C4B00222D
:102448001A6000F033FC0546484B1B6813F0020F76
:10245800D3D000F02BFC401B0228F5D9032010E153
:10246800444B00221A6000F021FC05463F4B5B6F8D
:1024780013F0020F06D000F019FC401B0228F5D912
:102488000320FEE0236813F0040F78D0374B1B6C51
:1024980013F0805F0DD100230193344B1A6C42F086
:1024A80080521A641B6C03F080530193019B012531
:1024B80000E00025304B1B6813F4807F21D0A3680F
:1024C800012B32D0052B36D0284B1A6F22F001028F
:1024D8001A671A6F22F004021A67A368002B34D017
:1024E80000F0E4FB0646214B1B6F13F0020F45D1A9
:1024F80000F0DCFB801B41F288339842F3D90320BB
:10250800BFE01D4A136843F48073136000F0CEFBEC
:102518000646194B1B6813F4807FD0D100F0C6FB28
:10252800801B0228F5D90320ABE0104A136F43F053
:1025380001031367D1E70D4B1A6F42F004021A67C3
:102548001A6F42F001021A67C7E700F0AFFB0646B0
:10255800064B1B6F13F0020F10D000F0A7FB801B77
:1025680041F288339842F3D903208AE000380240C8
:1025780000004742800E474200700040E5B9A36959
:10258800002B7DD0464A926802F00C02082A51D0EE
:10259800022B17D0434B00221A6000F087FB044639
:1025A8003F4B1B6813F0007F42D000F07FFB001BFD
:1025B8000228F5D9032064E0394A136C23F08053CC
:1025C8001364DCE7374B00221A6000F06FFB054606
:1025D800334B1B6813F0007F06D000F067FB401BED
:1025E8000228F5D903204CE0E369226A1343626AA2
:1025F80043EA8213A26A5208013A43EA0243E26AB2
:1026080043EA0263264A5360264B01221A6000F00F
:102618004DFB0446224B1B6813F0007F06D100F0E7
:1026280045FB001B0228F5D903202AE0002028E0FA
:10263800002026E0012B26D0194B5B6803F48001AB
:10264800E269914221D103F03F02216A8A421ED1F8
:10265800616A47F6C0721A408A421AD103F44032BE
:10266800A16A8A4217D103F07063E26A934214D1D7
:10267800002006E001207047012002E0012000E070
:10268800002002B070BD0120FBE70120F9E701201E
:10269800F7E70120F5E70120F3E70120F1E700BFA4
:1026A8000038024060004742F8B52F4B9B6803F0A2
:1026B8000C03042B53D0082B53D12B4B5A6802F030
:1026C8003F025B6813F4800F28D0274B5B68C3F385
:1026D800881358010021C01A61F100018E0146EAF1
:1026E800906687013C1A66EB0105E90041EA5471DE
:1026F800E000C01841F100014B0243EAD053440204
:10270800204619460023FDF7F3FD174B5B68C3F31A
:10271800014301335B00B0FBF3F023E0124B5B682D
:10272800C3F388135C010025E41A65F10005AE01C6
:1027380046EA9466A701381B66EB0501CC0044EA1B
:102748005074C500E81844F100018B0243EA905325
:102758008402204619460023FDF7CAFDD5E7034841
:1027680000E00348F8BD00BF0038024000127A00BC
:102778000024F400002800F09B8070B50D46044644
:102788004F4B1B6803F00F038B4208D2CBB24C4A65
:102798001370136803F00F038B4240F08B8023689B
:1027A80013F0020F17D013F0040F04D0454A9368B2
:1027B80043F4E0539360236813F0080F04D0414AB0
:1027C800936843F4604393603E4A936823F0F003B0
:1027D800A1680B439360236813F0010F32D063683C
:1027E800012B21D09A1E012A25D9364A126812F0E7
:1027F800020F61D033498A6822F0030213438B60C9
:1028080000F054FA06462F4B9B6803F00C036268ED
:10281800B3EB820F16D000F049FA801B41F28833DF
:102828009842F0D9032042E0264A126812F4003F89
:10283800E0D101203BE0234A126812F0007FD9D191
:10284800012034E01E4B1B6803F00F03AB4207D98D
:10285800EAB21B4B1A701B6803F00F03AB422DD171
:10286800236813F0040F06D0164A936823F4E05344
:10287800E1680B439360236813F0080F07D0114AEF
:10288800936823F46043216943EAC1039360FFF727
:102898000BFF0C4B9B68C3F303130B4AD35CD84064
:1028A8000A4B18600A4B186800F0B4F9002070BD94
:1028B800012070470120FAE70120F8E70120F6E738
:1028C800003C024000380240503000080800002058
:1028D80004000020014B1868704700BF0800002062
:1028E80008B5FFF7F7FF044B9B68C3F38223034A3D
:1028F800D35CD84008BD00BF0038024060300008F3
:1029080008B5FFF7E7FF044B9B68C3F34233034A5C
:10291800D35CD84008BD00BF0038024060300008D2
:1029280000230F2B00F2D980F0B583B039E00722DD
:1029380000E00022B2403A430234684E46F82420B0
:10294800674A1468EA4324EA05064F6817F4803F8B
:1029580001D045EA0406624C2660646802EA04066F
:102968004F6817F4003F01D045EA04065C4C6660E6
:10297800A46802EA04064F6817F4801F01D045EAEC
:102988000406574CA660E46822404E6816F4001FFF
:1029980001D045EA0402524CE26001330F2B00F2E9
:1029A8009A8001229A400C6804EA020532EA04047B
:1029B800F3D14C68661E012E03D9112C01D0122CBC
:1029C80012D186685F000324BC4026EA0406CC685E
:1029D800BC4034438460466826EA02064C68C4F367
:1029E80000129A4032434260C7685E000324B44034
:1029F800E24327EA04078C68B4403C43C4604C684F
:102A0800022C01D0122C13D1DF08083750F827E028
:102A180003F007044FEA840C0F2404FA0CF42EEA9E
:102A2800040E0C6904FA0CF444EA0E0440F827403A
:102A3800046814404A6802F00302B240224302606C
:102A48004A6812F0805FA8D000220192254A546C8F
:102A580044F480445464526C02F480420192019A16
:102A68009C08A61C1D4A52F8267003F00302960023
:102A78000F22B24027EA02071B4A90423FF459AF9F
:102A880002F5806290421AD002F58062904218D016
:102A980002F58062904216D002F58062904214D00E
:102AA80002F58062904212D002F58062904210D006
:102AB80002F5806290423FF43AAF08223AE70122D9
:102AC80038E7022236E7032234E7042232E70522F8
:102AD80030E706222EE703B0F0BD7047003801400A
:102AE800003C0140003802400000024003691942DE
:102AF80001D001207047002070470AB181617047FA
:102B0800090481617047436931EA030301D0816197
:102B1800704709048161704790F83530DBB2022BA9
:102B280003D08023436501207047052380F83530A2
:102B38000268136823F00103136000207047000047
:102B4800074AD36823F4E0631B041B0C000200F45B
:102B5800E060034343F0BF6343F40033D36070473E
:102B680000ED00E030B4174BDB68C3F30223C3F178
:102B78000704042C28BF04241D1D062D18D9033B67
:102B88004FF0FF3505FA04F421EA0401994005FAEB
:102B980003F322EA0303194300280BDB0901C9B236
:102BA80000F1604000F5614080F8001330BC7047C8
:102BB8000023E5E700F00F000901C9B2024B1954E0
:102BC800F4E700BF00ED00E014ED00E0002807DBAB
:102BD80000F01F02400901239340024A42F82030C6
:102BE800704700BF00E100E00138B0F1807F0AD2F1
:102BF800064B5860064AF02182F82310002098609E
:102C080007221A6070470120704700BF10E000E0FB
:102C180000ED00E010B504460E4B18784FF47A73B7
:102C2800B3FBF0F30C4A1068B0FBF3F0FFF7DCFFDE
:102C380068B90F2C01D901200AE0002221464FF083
:102C4800FF30FFF78FFF054B1C60002000E00120DC
:102C580010BD00BF01000020080000200400002073
:102C680008B50B4B1A6842F400721A601A6842F4ED
:102C780080621A601A6842F480721A600320FFF7B3
:102C88005FFF0020FFF7C6FFFDF708FE002008BD24
:102C9800003C0240034A1168034B1B780B44136045
:102CA800704700BF2006002001000020014B186873
:102CB800704700BF2006002038B50446FFF7F6FF2E
:102CC8000546B4F1FF3F02D0044B1B781C44FFF7C4
:102CD800EDFF401BA042FAD338BD00BF0100002021
:102CE8000F49D1F8883043F47003C1F888300D4B90
:102CF8001A6842F001021A60002098601A6822F0EF
:102D0800847222F480321A60074A5A601A6822F4E0
:102D180080221A60D8604FF000638B60704700BF54
:102D280000ED00E00038024010300024104B5B7AC0
:102D3800E3B970B4044603F0FF000D4B5D7AEDB2C1
:102D480000265E555D7A03EB85056C605C7A1C4451
:102D580022725A7A541CE4B25C7230320A703A23F6
:102D68004B702F238B70CE7070BC7047012070475A
:102D78002800002008B50022FFF7D8FF08BD000092
:102D880070B504460268136923F44053C1680B43C5
:102D9800136183680269134342691343C2691A4382
:102DA8000168CB6823F4164323F00C031343CB606C
:102DB8000268536923F4407381690B435361C36903
:102DC800B3F5004F36D00368654A934200F09A8005
:102DD80002F58062934200F09580FFF781FD00269E
:102DE800051846EB06012D1846EB0101CB0043EA16
:102DF8005573EA001546194663689A009B0F281810
:102E080046EB0101FDF774FA564DA5FB0032510956
:102E1800642303FB11031B013233A5FB03235B0966
:102E280003F0F00202EB011203F00F0321681344D0
:102E38008B6093E003684A4A934233D002F580627C
:102E480093422FD0FFF74CFD0026051846EB0601EC
:102E58002D1846EB0101CB0043EA5573EA001546ED
:102E6800194662683346921846EB0303281846EB66
:102E78000101FDF73DFA3B4DA5FB003251096423E2
:102E880003FB1103DB003233A5FB03235B095A0064
:102E980002F4F87202EB011203F0070321681344ED
:102EA8008B605BE0FFF72CFD0026051846EB06015A
:102EB8002D1846EB0101CB0043EA5573EA0015468D
:102EC800194662683346921846EB0303281846EB06
:102ED8000101FDF70DFA234DA5FB003251096423CA
:102EE80003FB1103DB003233A5FB03235B095A0004
:102EF80002F4F87202EB011203F00703216813448D
:102F08008B602BE0FFF7FCFC0026051846EB06015A
:102F18002D1846EB0101CB0043EA5573EA0015462C
:102F2800194663689A009B0F281846EB0101FDF7C4
:102F3800DFF90C4DA5FB00325109642303FB110393
:102F48001B013233A5FB03235B0903F0F00202EBFC
:102F5800011203F00F03216813448B6070BD00BF9A
:102F6800001001401F85EB5158B310B5044690F886
:102F780039300BB3242384F839302268D36823F41A
:102F88000053D3602046FFF7FBFE2268136923F441
:102F9800904313612268536923F02A03536122681E
:102FA800D36843F40053D3600020E063202384F8FF
:102FB800393084F83A3010BD80F83830FDF71EFDFE
:102FC800D8E7012070470000DFF834D0002103E083
:102FD8000C4B5B58435004310B480C4B42189A4237
:102FE800F6D30B4A02E0002342F8043B094B9A420D
:102FF800F9D3FFF775FEFDF707F9FDF705FC7047F4
:103008000000022078300008000000200C0000209A
:103018000C00002024060020FEE70000F8B500BFE1
:10302800F8BC08BC9E467047F8B500BFF8BC08BCA1
:043038009E467047F9
:10303C00750B00089D0B0008A50B0008C90B0008B8
:10304C00ED0B00080000000000000000010203046A
:0C305C0006070809000000000102030440
:08306800C0D2FF7F010000004F
:04307000F101000862
:04307400C901000886
:0C30780001010000100000000024F40022
:0400000508002FD1EF
:00000001FF
